:100000000C9482060C94C9060C94C9060C94C9067B
:100010000C94C9060C94C9060C94C9060C94C90624
:100020000C94C9060C94C9060C945F2D0C94312EC7
:100030000C9435260C94C9060C94C9060C94C90678
:100040000C94C9060C94C9060C94C9060C94C906F4
:100050000C94F1150C9482260C94C9060C94C906D4
:100060000C94C9060C94C9060C94C9060C94C906D4
:100070000C94C9060C94C9060C94C9060C94C906C4
:100080000C94C9060C94C9060C94C9060C94C906B4
:100090000C94C9060C94C9060C94C9060C94C906A4
:1000A0000C94C9060C94C9060C94C9064F1352133C
:1000B0005A135F13641369136E13731378137D134C
:1000C0008213871389138C138F139213951398132C
:1000D0009A139F1359155B156015631566156915FD
:1000E0006C15E21BE21B141C141C611C881D881D6E
:1000F000881D7F1C181D291D291D191E191E2B1E48
:100100002B1E221E2B1E2B1E2B1E191E191E271ED8
:100110002B1E2B1E271E9E2EC52EBD2FC52EBD2F7E
:10012000112F342FBD2F8B2F9A2F29001E001F0057
:1001300020002100220023002400250026002700A3
:100140002D002E0031002B0014001A0008001500AD
:1001500017001C0018000C00120013002F003000C4
:100160002A00035104001600070009000A000B00D2
:100170000D000E000F003300340028000000E100E5
:100180001D001B00060019000500110010003600BC
:1001900037003800E500025100000000E200E300F3
:1001A0000000000000002C00000000000000E7003C
:1001B000E60000003500010001000100010001001F
:1001C0000100010001000100010001000100010027
:1001D0000100010001000100010001000100010017
:1001E0000100010001000100010001000100010007
:1001F00001000100010001000100010001000100F7
:1002000001000100010001000000010001000100E7
:1002100001000100010001000100010001000100D6
:1002200001000100000001000100010000000000C9
:1002300000000100000000000000010001000100BA
:10024000010029113A003B003C003D003E003F0008
:1002500040004100420043004400450031112B1191
:10026000141152000811151117111C1118110C113D
:10027000121113112F1130114C00010050005100C8
:100280004F0009110A110B110D110E110F1133112D
:1002900034112811000000001D111B110611191145
:1002A00005111111101136113711381104510100C7
:1002B00000000000045135080000000000002C116F
:1002C000000000000000E40004510000280529019E
:1002D0003A003B003C003D003E003F004000410032
:1002E000420043004400450031012B0114011A0172
:1002F0000801150117011C0118010C01120113015D
:100300002F0130014C000100040116010701090111
:100310000A010B010D010E010F014A004B002801DB
:10032000000004511D011B01060119010501110105
:10033000100136014D004E000000000000000000DA
:100340000451E00000000000000000000000000078
:1003500000000000000000003501005C000000000B
:10036000000000000000000000000000000000008D
:100370000000000000000000000052050000000026
:10038000000000000000000000000000000000006D
:1003900000000000500551054F050000000000005E
:1003A000000000000000000000000000000001004C
:1003B00000000000000000000000AA00A900A80042
:1003C000000000000100000000000000010000002B
:1003D000000000000000010000000000000000001C
:1003E00001000000000044454255473A206469730B
:1003F00061626C65642E0A0044454255473A2065A7
:100400006E61626C65642E0A000A00253031366226
:10041000003A200025303258000A722F6320303114
:1004200032333435363738394142434445460A0081
:100430007267626C696768742074696D65722064A4
:10044000697361626C652E0A007267626C69676825
:10045000742074696D657220656E61626C65642ECE
:100460000A007267626C696768742073657420683B
:100470007376205B4E4F454550524F4D5D3A2025D7
:10048000752C25752C25750A007267626C69676882
:10049000742073657420687376205B454550524F15
:1004A0004D5D3A2025752C25752C25750A0072673F
:1004B000626C69676874207261696E626F7720731D
:1004C0006574206873763A2025642C25642C256495
:1004D0002C25750A007267626C696768742064690C
:1004E0007361626C65205B4E4F454550524F4D5DC8
:1004F0003A207267626C696768745F636F6E6669E1
:10050000672E656E61626C65203D2025750A00725C
:1005100067626C696768742064697361626C6520E6
:100520005B454550524F4D5D3A207267626C69677A
:1005300068745F636F6E6669672E656E61626C6575
:10054000203D2025750A007267626C696768742017
:10055000656E61626C65205B4E4F454550524F4D54
:100560005D3A207267626C696768745F636F6E667C
:1005700069672E656E61626C65203D2025750A00F5
:100580007267626C6967687420656E61626C652071
:100590005B454550524F4D5D3A207267626C69670A
:1005A00068745F636F6E6669672E656E61626C6505
:1005B000203D2025750A007267626C6967687420A7
:1005C000746F67676C65205B454550524F4D5D3ACF
:1005D000207267626C696768745F636F6E666967D3
:1005E0002E656E61626C65203D2025750A0072677C
:1005F000626C69676874206D6F6465205B4E4F455F
:100600004550524F4D5D3A2025750A007267626C65
:1006100069676874206D6F6465205B454550524F73
:100620004D5D3A2025750A007267626C69676874CF
:100630005F696E6974207267626C696768745F6372
:100640006F6E6669672E6D6F6465203D20302E20C9
:1006500057726974652064656661756C7420766193
:100660006C75657320746F20454550524F4D2E0AAE
:10067000007267626C696768745F696E697420658F
:1006800065636F6E666967206973206E6F7420659D
:100690006E61626C65642E0A007267626C696768DD
:1006A000745F696E6974207374617274210A0072D8
:1006B00067626C696768745F696E69742063616CF6
:1006C0006C65642E0A007267626C696768745F63A8
:1006D0006F6E6669672E7370656564203D202564C2
:1006E0000A007267626C696768745F636F6E66693F
:1006F000672E76616C203D2025640A007267626C6B
:10070000696768745F636F6E6669672E73617420D2
:100710003D2025640A007267626C696768745F63D4
:100720006F6E6669672E687565203D2025640A0036
:100730007267686C696768745F636F6E6669672E5D
:100740006D6F6465203D2025640A007267626C69E4
:100750006768745F636F6E6669672E656E61626C51
:1007600065203D2025640A007267626C69676874C1
:100770005F636F6E66696720454550524F4D3A0A78
:100780000000047F3F1F643214643214783C1E1E44
:10079000140A052223252628292A2C2D2F3032330E
:1007A0003536383A3B3D3E4042434547494A4C4E38
:1007B0005051535557595A5C5E6062646668696B64
:1007C0006D6F71737577797B7D7F81838587898A6A
:1007D0008C8E90929496989A9C9E9FA1A3A5A7A870
:1007E000AAACAEAFB1B3B4B6B8B9BBBCBEBFC1C2A0
:1007F000C3C5C6C7C9CACBCCCDCED0D1D2D2D3D433
:10080000D5D6D7D7D8D9D9DADADBDBDBDCDCDCDC50
:10081000DCDDDDDDDDDCDCDCDCDCDBDBDBDADAD91E
:10082000D9D8D7D7D6D5D4D3D2D2D1D0CECDCCCBA0
:10083000CAC9C7C6C5C3C2C1BFBEBCBBB9B8B6B4BE
:10084000B3B1AFAEACAAA8A7A5A3A19F9E9C9A984E
:10085000969492908E8C8A89878583817F7D7B791F
:10086000777573716F6D6B6968666462605E5C5A00
:100870005957555351504E4C4A4947454342403EC3
:100880003D3B3A3836353332302F2D2C2A29282655
:10089000252322FFAA7F55406261636B6C696768FC
:1008A0007420627265617468696E6720646973613F
:1008B000626C650A006261636B6C696768742062D0
:1008C0007265617468696E6720656E61626C650A45
:1008D000006261636B6C6967687420627265617441
:1008E00068696E6720746F67676C653A2025750AC2
:1008F000006261636B6C6967687420737465703A39
:100900002025750A006261636B6C696768742064F6
:10091000697361626C650A006261636B6C69676828
:100920007420656E61626C650A006261636B6C695C
:1009300067687420746F67676C653A2025750A00D4
:100940006261636B6C69676874206465637265617A
:1009500073653A2025750A006261636B6C6967688C
:100960007420696E6372656173653A2025750A00AB
:10097000000000000000000000000001010203046C
:100980000506080A0C0F1114181C2024292E3339CF
:100990003F464C535B626A7179818A929AA2AAB2ED
:1009A000B9C1C8CFD5DCE1E7EBF0F4F7FAFCFDFE06
:1009B000FFFEFDFCFAF7F4F0EBE7E1DCD5CFC8C1B0
:1009C000B9B2AAA29A928A8179716A625B534C4643
:1009D0003F39332E2924201C1814110F0C0A080645
:1009E00005040302010100000000000000000000F7
:1009F00000010101010101010101020202020202E2
:100A000002020203030303030303030404040404B4
:100A1000040405050505050606060606070707077B
:100A20000708080808090909090A0A0A0B0B0B0C30
:100A30000C0C0D0D0D0E0E0E0F0F0F1010111111CD
:100A4000121213131414151516161717181819194E
:100A50001A1A1B1B1C1D1D1E1E1F202021222223B3
:100A60002424252626272829292A2B2C2D2D2E2FF4
:100A700030313232333435363738393A3B3C3D3E0B
:100A80003F404142434445464748494A4C4D4E4FFA
:100A900050515354555658595A5B5D5E5F616264BC
:100AA000656668696B6C6D6F7072737577787A7B49
:100AB0007D7E8082838587888A8C8E8F91939596A0
:100AC000989A9C9EA0A2A3A5A7A9ABADAFB1B3B5C0
:100AD000B7BABCBEC0C2C4C6C9CBCDCFD1D4D6D89C
:100AE000DBDDDFE2E4E7E9EBEEF0F3F5F8FAFDFF3A
:100AF0000A002530325820006B6579626F6172649C
:100B00005F7265706F72743A20000A0025303258A7
:100B1000006B6579626F6172645F7365745F6C65A9
:100B2000643A200064656C5F6B65795F6269743A52
:100B30002063616E27742064656C3A20253032583A
:100B40000A006164645F6B65795F6269743A20636F
:100B5000616E2774206164643A20253032580A009F
:100B6000646F6E652E0A00626F6F746D61676963F2
:100B7000207363616E3A202E2E2E20005B735D0081
:100B80004B6579626F6172642073746172742E0AAE
:100B9000005B575D005B535D005B525D005B445D35
:100BA000005B435D000403300000000C036B006237
:100BB000006400360078000000080359006F0075DB
:100BC0000000000403090409025B00030100A0FA0D
:100BD00009040000010301010009211101000122A3
:100BE00040000705810308000A0904010001030011
:100BF0000000092111010001226D00070582032078
:100C0000000A09040200020300000009211101008A
:100C100001222200070583032000010705030320AA
:100C200000011201100100000008424B583601007B
:100C3000010203010631FF0974A10109751500269F
:100C4000FF009520750881020976150026FF0095A2
:100C50002075089102C005010980A10185031901D1
:100C60002AB700150126B700950175108100C0054F
:100C70000C0901A101850419012AA002150126A071
:100C800002950175108100C005010906A1018505C5
:100C9000050719E029E7150025019508750181026E
:100CA0000507190029EF1500250195F0750181024E
:100CB000050819012905950575019102950175032E
:100CC0009101C005010906A101050719E029E715F1
:100CD00000250195087501810295017508810105BE
:100CE00007190029FF150026FF00950675088100E9
:100CF00005081901290595057501910295017503EE
:100D00009101C00011241FBECFEFDAE0DEBFCDBFDE
:100D100004B603FE27C08091070390910803A091B9
:100D20000903B0910A038730904BA740B04BD1F430
:100D300010920703109208031092090310920A03FD
:100D400014BE84B7877F84BF0FB6F894A8958091AE
:100D50006000886180936000109260000FBEE0E048
:100D6000F8E3099511E0A0E0B1E0E6EBF1E602C09E
:100D700005900D92A83CB107D9F723E0A8ECB1E0AB
:100D800001C01D92A730B207E1F70E94852A0C949A
:100D9000D9300C940000FF93EF93E091C801F091DB
:100DA000C901309709F00995EF91FF910895FC0171
:100DB0008591803011F0EFDFFBCF0895FF27E0E24F
:100DC00030E247FF0CC0419597FF09C0EDE2609506
:100DD000709580959095611D711D811D911D27FF56
:100DE00002C0219530E350E2AA27660F771F881FC3
:100DF000991FAA1FA41710F0A41B63955A95A9F771
:100E0000AA3008F0A95FA05DAF93F3956115710555
:100E10008105910541F7ED3211F4EF93F395F21747
:100E200018F43F93F395FBCF8F91B5DFFA95E1F777
:100E30000895E991F9918591803021F0853219F07A
:100E4000AADFF9CF089520E0E89455915532C1F317
:100E5000503311F4689455915A3348F4505390F339
:100E6000220F022E220F220F200D250FF4CF0EF499
:100E7000219589919991533619F3533729F15335B7
:100E800059F1BC0188279927E8945C3621F48991AF
:100E9000999168945591543639F446EF7EF077FF76
:100EA0000DC08FEF9FEF0AC055374AE039F0583533
:100EB00040E121F0523642E009F00895FF93EF93AC
:100EC0007DDFEF91FF91B7CFFF93EF93FC0181910D
:100ED0008030B9F360DFFBCFFF93EF9368DFF1CF92
:100EE000DF93CF93CDB7DEB72596A3DFCF91DF9108
:100EF00008950C94920A0C94900A0C94890781FF2F
:100F000002C0269A01C026982E980C94DD0781E035
:100F1000089581E0089508950C948B071F93CF9353
:100F2000DF9300D000D01F92CDB7DEB749835A833C
:100F30006B832091F30189819A81211112C066236C
:100F400049F00E94D522182F682F89819A810E942A
:100F50007E2203C00E94A922182F69817A81812FE5
:100F600004C00E94D52269817A810F900F900F9062
:100F70000F900F90DF91CF911F910C946008FC01AE
:100F8000408151816281738184810C948E07CF935B
:100F9000DF93EC010E94BF07BE01DF91CF910C945B
:100FA0008C070E942424811102C00E94D7240E9431
:100FB00060160C9479070C947B07089581E00895DE
:100FC0000C94DE07CF93C82F0E947F078C2F0E94BE
:100FD000E007CF91089508950E94071E0E94EB0735
:100FE0002FEF84E39CE0215080409040E1F700C067
:100FF00000000C94A8260F931F93CF93DF93EC016E
:101000000E94BF078C01BE010E947D07882309F45E
:1010100050C0BE01C8010E944A15882309F449C086
:10102000BE01C8010E942917882309F442C0BE01ED
:10103000C8010E946A178823E1F1BE01C8010E941D
:1010400095188823B1F1BE01C8010E943813882386
:1010500081F18A81882331F101308CE5180751F044
:101060000E3D8CE51807D9F001151C45D9F40E94F6
:10107000EC071FC080918602C82FC095C170C0FBCD
:1010800080F980938602CC2329F088EF93E00E94B8
:10109000D7060FC086EE93E00E94D7060BC00E94D1
:1010A000D72407C0CE01DF91CF911F910F910C94EF
:1010B0008707C0E08C2FDF91CF911F910F9108958A
:1010C00026E4829FC0011124FC012EE0729FE00DF6
:1010D000F11D1124E60FF11DEE0FFF1FE65DFE4F1F
:1010E000859194910895CF93DF930E9460080E94A8
:1010F0006409EC0181159245F0F5C11581E5D80729
:1011000008F0A9C0C83ED10528F5C03ED10508F0B9
:10111000D7C0C83AD10578F4C53AD10508F074C0F3
:10112000C130D10509F4CCC008F4C8C0C430D10521
:1011300008F0C6C0C3C0CF3BD10508F0BFC0C85A35
:10114000D0E0CC0FDD1FC25EDE4F0990D881C02DEC
:10115000D464B6C0C11590E5D90708F060C0C115C8
:1011600020E4D20708F058C0CE019A9581159F411E
:1011700008F4A6C0A3C0C11586E5D80718F5C115A7
:1011800095E5D90708F080C0C11524E5D20708F01D
:1011900076C09E01237033278C2F86958695C115C6
:1011A000D34508F05DC0C1E0D0E002C0CC0FDD1F28
:1011B0002A95E2F720E2829FC0011124C82BD92B87
:1011C000DC687EC0C1152AE5D20778F4C11589E52F
:1011D000D80708F063C0C11598E5D90708F46EC0B8
:1011E000DC2FCC27C06FD06A6BC0CE019056811522
:1011F000904208F063C08D2F8F710E94F809DD279F
:10120000D0628F71D82B5CC0C55AD0E0C45BDE4F72
:10121000C881D0E0D06454C0DF70D06A51C0CE0124
:1012200074E0969587957A95E1F783709C2F93707B
:1012300021E030E002C0220F331F9A95E2F73C68AC
:10124000382BCF70C695C69580E2C89FE001112467
:10125000C22BD32B35C0DC2FCC27C16FD06A30C056
:10126000C1E0D0E002C0CC0FDD1F2A95E2F720E2FA
:10127000829FC0011124C82BD92BDA6821C0DC2F32
:10128000CC27C46FD06A1CC08C2F0E94F8098F71C4
:10129000C82FD0E0DC2FCC27D06212C08C2F8F70EB
:1012A0000E94F80994E0D695C7959A95E1F7CF701A
:1012B000D0E0DC2FCC27D069C82B02C0C0E0D0E042
:1012C000CE01DF91CF9108958238910569F1B0F494
:1012D0008133910509F46DC048F48932910509F410
:1012E00063C08A32910509F469C008958533910578
:1012F00009F455C089339105B9F00895833E9105ED
:1013000069F138F4803E9105B1F0823E910509F112
:101310000895863E9105A9F1873E9105B9F1843E75
:10132000910509F064C023C02091F80220FD4FC050
:1013300021FD4DC008958091F80280FD44C0809148
:10134000F90280FF44C08091F80284FD42C083EE20
:101350004DC08091F80282FF38C0F5CF8091F8022D
:1013600082FD33C08091F90280FD31C0ECCF8091C5
:10137000F90281FF32C08091F80284FD2AC087EE15
:1013800035C08091F80283FF26C0F5CF8091F80226
:1013900083FD21C08091F90281FD1FC0ECCF8091B7
:1013A000F80285FD1CC01DC08091F80285FD19C0A2
:1013B00016C08091F80286FD16C017C08091F80211
:1013C00086FD13C010C089E311C082EE0FC080EE0D
:1013D0000DC080E00BC086EE09C084EE07C089E234
:1013E00005C085E303C08AE201C081E390E008956F
:1013F0009091F80292FF0DC0282F2871283019F41F
:10140000877F846006C0282F2471243011F48B7FDD
:10141000886093FF0DC0282F2871283119F4877E2A
:10142000846106C0282F2471243111F48B7E8861D9
:101430002091F90220FF0DC0382F3871383019F48F
:10144000877F816006C0382F3171313011F48E7F73
:10145000886021FF0DC0282F2871283119F4877E5C
:10146000816106C0282F2171213111F48E7E88619F
:1014700094FD877E0895E82FF0E0EE0FFF1FE654FD
:10148000FD4F808191810895CF92DF92EF92FF927C
:101490000F931F93CF93DF9389E194E00E94D706C7
:1014A0008AEBE82E82E0F82EC0E0D0E094E1C92E6D
:1014B00094E0D92E0BE014E0DF93CF93DF92CF922C
:1014C0000E94700781E194E00E94D706F7018191A4
:1014D00091917F010E9411249F938F931F930F93EB
:1014E0000E94700789E094E00E94D70621968DB78C
:1014F0009EB708960FB6F8949EBF0FBE8DBFC5303D
:10150000D105D1F6DF91CF911F910F91FF90EF9010
:10151000DF90CF90089580EA8A95F1F708950895B5
:101520000C948F0A0C948F0ACF93DF93ADE5B1E052
:1015300042E651E061E070E08D91E82FE295EF70B6
:10154000F0E021A18F70EB0102C0CC0FDD1F8A9566
:10155000E2F7CE019C2F9095922391A392A1892B23
:1015600082A34A175B0741F7AFE4B1E04DE551E0D4
:1015700061E070E08D91E82FE295EF70F0E021A13D
:101580008F70EB0102C0CC0FDD1F8A95E2F7CE0110
:101590009C2F9095922391A392A1892B82A34A1705
:1015A0005B0741F7E0EBF2E0AAEBB2E08AEB92E0F6
:1015B000119211921D921D928E179F07C9F785E017
:1015C0000E94830BDF91CF910C94D1072F923F9211
:1015D0004F925F926F927F928F929F92AF92BF9243
:1015E000CF92DF92EF92FF920F931F93CF93DF93EF
:1015F0008DE5C82E81E0D82E00EB12E09AEB492E43
:1016000092E0592E312C88248394912C5801D801D2
:101610006D907C9011971D921C92F60181916F0143
:10162000C82FC295CF70D0E099A18F70740101C00E
:10163000EE0C8A95EAF7892F8E2989A38AA12E2C90
:10164000209482218AA30E948B0AEFE4F1E020E03B
:1016500030E06191A62FA295AF70B0E090968C918A
:10166000D8014D915C9190E06F7002C0959587957F
:101670006A95E2F780FD08C0C401022E02C0880FFF
:10168000991F0A94E2F702C080E090E0482B592BA2
:10169000D8014D935C932F5F3F4F2E303105C9F633
:1016A00089A1282229A28AA1E82AEAA20E5F1F4F57
:1016B00081E0F501208131812615370509F480E0AC
:1016C000382A4016510609F0A1CF232D45E06AEBD8
:1016D00072E080EB92E00E94840B0E94DB07832D76
:1016E000DF91CF911F910F91FF90EF90DF90CF90FE
:1016F000BF90AF909F908F907F906F905F904F9032
:101700003F902F9008950895FF920F931F93CF93CA
:10171000DF93F82E092F162FD72FC42F222349F03D
:1017200081E08093CC010E9467269093CB01809347
:10173000CA018091CC018823D9F08091CA0190918F
:10174000CB010E947326069798F0EF2DF02FA12F62
:10175000BD2F80E090E04C2F50E08417950734F4C3
:10176000219131912D933D930196F7CF1092CC01A9
:10177000DF91CF911F910F91FF900895EF92FF920B
:101780000F931F93CF93DF93F62E472FE82FF0E0B0
:10179000711106C0E051F64F6491762F862F72C00A
:1017A000272F30E0E051F64FE4910E2F10E056E085
:1017B000659FC0011124CFEFD0E0BE010E941A3016
:1017C0005BEA5603C001579F900D11248F0D911DA8
:1017D0008F0D911D982F990F890F7E01E21AF30A40
:1017E000E09ED001E19EB00DF09EB00D1124489F07
:1017F000A0011124452F55277E01E41AF50AE09E29
:10180000A001E19E500DF09E500D11247E01E81ABA
:10181000F108E29EC001E39E900DF29E900D11240E
:10182000892F9927C81BD90BC09FC001C19F900D5C
:10183000D09F900D11246230710591F048F461152C
:101840007105E1F061307105A9F48B2F752F19C076
:101850006430710561F038F06630710579F00AC0C6
:10186000892F7B2F0EC08E2F7B2FE52F0AC08E2F46
:10187000792F02C0852F7E2FEB2F03C08B2F7E2F59
:10188000E92F6E2FDF91CF911F910F91FF90EF9075
:1018900008950895CF93DF93762FE901682F842F61
:1018A0000E94BE0B798368838A83DF91CF9108956C
:1018B0008091C402282F269530E02115310519F4B6
:1018C0008170826005C02532310524F08170886402
:1018D0008093C402089588E090E00C949930CF92F0
:1018E000DF92EF92FF926B017C010E94580CB701CE
:1018F000A60188E090E0FF90EF90DF90CF900C94ED
:10190000B730E4ECF2E083E0808311828FEF8283D2
:101910008383148260817181828193810C946F0C26
:101920008091860280FF08C088E697E09F938F939E
:101930000E9470070F900F908091860280FF0FC069
:101940008091C40281701F928F938BE497E09F93E4
:101950008F930E9470070F900F900F900F908091BF
:10196000860280FF0FC08091C40286951F928F93DC
:1019700080E397E09F938F930E9470070F900F90E2
:101980000F900F908091860280FF0EC08091C5025B
:101990001F928F9386E197E09F938F930E94700729
:1019A0000F900F900F900F908091860280FF0EC0D5
:1019B0008091C6021F928F938CEF96E09F938F9336
:1019C0000E9470070F900F900F900F9080918602E9
:1019D00080FF0EC08091C7021F928F9382EE96E027
:1019E0009F938F930E9470070F900F900F900F900E
:1019F0008091860280FF0EC08091C8021F928F9353
:101A000086EC96E09F938F930E9470070F900F9043
:101A10000F900F9008958091C40280FF02C08695B8
:101A2000089580E008958091C802833018F48F5F94
:101A30008093C8026091C4027091C5028091C60271
:101A40009091C7020C946F0C8091C802882319F002
:101A500081508093C8026091C4027091C502809148
:101A6000C6029091C7020C946F0C6091040170E063
:101A70008091C40280FF0AC08091D10123E0829F3F
:101A8000C001112487539D4F0C94B2168091D00150
:101A900090910301891780F7E82FF0E09F01220F52
:101AA000331FE20FF31FE753FD4F118210821282A2
:101AB0008F5FF0CF9091C40290FF16C09091D0013B
:101AC00020910301921770F4E92FF0E0DF01AA0FD3
:101AD000BB1FEA0FFB1FE753FD4F818360834283E7
:101AE0009F5FF0CF0C94350D0895CF93DF9300D016
:101AF0001F92CDB7DEB79091C40290FF0AC09E013D
:101B00002F5F3F4F0E944A0C4B8169818A810E945E
:101B10005A0D0F900F900F90DF91CF910895CF93B2
:101B2000DF93EC01EC81F0E0ED56F84F4491E4ECEA
:101B3000F2E0628181810E94750D8C818F5F8C83C0
:101B4000DF91CF910895CF93DF93EC01E4ECF2E0C5
:101B5000438162818C810E94750D8C818F5F8C83A3
:101B6000DF91CF9108950F931F93CF93DF9300D010
:101B70001F92CDB7DEB78C018091CD0181110AC0D3
:101B80009E012F5F3F4F4FEF6FEF0E944A0C8A81FB
:101B90008093CD01F8018481813051F028F08230AA
:101BA00061F44091CD010AC08091CD0140E007C0B1
:101BB0006091CD0140E080E003C040E080E060E063
:101BC0000E945A0DF801848190E0019663E070E074
:101BD0000E942E3084830F900F900F90DF91CF9151
:101BE0001F910F9108954F925F926F927F928F9203
:101BF0009F92AF92BF92CF92DF92EF92FF920F939C
:101C00001F93CF93DF9300D01F92CDB7DEB7F82E8E
:101C1000B62EE42E622E9091C40290FFB4C0E92F3C
:101C2000E695AE2FB0E0AE59BE4F8C918093D901AE
:101C30009E7F923061F49E012F5F3F4F8F2D0E9457
:101C40004A0C4B8169818A810E945A0D62C08230A0
:101C500019F4E090C7025DC0863019F4F090C50217
:101C600058C08930D9F3893109F053C0E9518E2F1A
:101C70008170782E81E0A72CA826E695F0E0ED563D
:101C8000F74FC590D490412CDD249EEA892E94E034
:101C9000992E609102014616D0F5042D10E00C9D9E
:101CA000C0010D9D900D1C9D900D112470E00E94AF
:101CB0001A305F2C711002C0560E01C0561A809166
:101CC000860280FF11C0DF92CF921F92AF921F92C7
:101CD0005F921F924F929F928F920E9470070FB651
:101CE000F894DEBF0FBECDBF8091D001080F111D4B
:101CF0009801220F331F020F131F980127533D4FE6
:101D00004E2D6B2D852D0E944A0C4394C2CF0E940C
:101D1000350DF092C502B092C602E092C70266206D
:101D2000E9F06091C4027091C5028091C602909161
:101D3000C7020E946F0C8091860280FF24C08091B0
:101D4000C7021F928F938091C6021F928F9380913A
:101D5000C5021F928F9389E894E00CC0809186029F
:101D600080FF11C01F92EF921F92BF921F92FF92AD
:101D700082E694E09F938F930E9470070FB6F894C9
:101D8000DEBF0FBECDBF0F900F900F90DF91CF91B0
:101D90001F910F91FF90EF90DF90CF90BF90AF9089
:101DA0009F908F907F906F905F904F900895E4EC9C
:101DB000F2E09181282F438162818CE0890F0C949D
:101DC000F30D81E00C94D70EE4ECF2E09181282F22
:101DD0004381628184EF890F0C94F30D81E00C94B0
:101DE000E40EE4ECF2E062812CE0620F08F46FEFA5
:101DF000282F438181810C94F30D81E00C94F10E26
:101E0000E4ECF2E062812CE0621B08F460E0282F31
:101E1000438181810C94F30D81E00C94000FE4EC7C
:101E2000F2E043812CE0420F08F44FEF282F62814B
:101E300081810C94F30D81E00C940F0FE4ECF2E03F
:101E400043812CE0421B08F440E0282F628181810D
:101E50000C94F30D81E00C941E0F20E00C94F30D14
:101E6000FF920F931F93CF93DF93EC01F12C0FEFB1
:101E700010E060910201F616F0F48091D0012F2D50
:101E800030E0280F311DC901880F991F280F391F15
:101E900027533D4F70E0C8010E942E30962F8C8151
:101EA0004091C7026091C602F99E800D11240E94E4
:101EB0004A0CF394DECF0E94350D9A818C8190FFFD
:101EC00002C08F5F01C081508C83DF91CF911F9141
:101ED0000F91FF900895AF92BF92CF92DF92EF9251
:101EE000FF920F931F93CF93DF93FC01828180FFBA
:101EF00002C00FEF01C001E010E04EE0A42E80917F
:101F00000201181708F043C08091D001C12ED12CD6
:101F1000E601C80FD11DCE01880F991FC80FD91F28
:101F2000C753DD4F198218821A8234E0E32EF12C58
:101F3000B12C8091CF018B0D8F302CF06A2D0E9437
:101F40000C30892F05C087FF03C090910201890FD3
:101F5000082E000C990BC816D90691F48091C7027F
:101F60008E9DA0018F9D500D112455954795559537
:101F700047959E016091C6028091C5020E944A0C5D
:101F8000B00EF1E0EF1AF108A1F61F5FB8CF0E9482
:101F9000350D8091CF01013031F4811102C0809163
:101FA0000201815007C090E001966091020170E04B
:101FB0000E942E308093CF01DF91CF911F910F911E
:101FC000FF90EF90DF90CF90BF90AF900895CF93A8
:101FD0008091D00190910301891770F4E82FF0E00F
:101FE0009F01220F331FE20FF31FE753FD4F1182B2
:101FF000108212828F5FF0CFC0E060910201C6179D
:10200000C0F5EC2FF0E070E0CF010E942E3020915F
:10201000D001820F2091CE01022E000C330B90E0F4
:10202000E217F307CCF020910101022E000C330BD4
:102030002E173F078CF09C01220F331F820F931F36
:102040009C0127533D4F4091C7026091C602809189
:10205000C5020E944A0C0BC0FC01EE0FFF1F8E0F41
:102060009F1FFC01E753FD4F118210821282CF5F48
:10207000C4CF0E94350D209100018091CE01820FC6
:102080008093CE0190910101920F90930101191656
:102090005CF4082E000C990B4091020150E0415075
:1020A0005109841795071CF0219520930001CF91C9
:1020B00008950F931F93CF93DF938C01FC018481CC
:1020C000958101968170992795838483C0E0D5E539
:1020D00080910201C81700F58091D0012C2F30E0CB
:1020E000280F311DC901880F991F280F391F275349
:1020F0003D4F4C2F4695F80184819581840F911DA9
:1021000081704091C7026091C6028D9F802D11247D
:102110000E944A0CCF5FDCCFDF91CF911F910F91CE
:102120000C94350D0F931F93CF93DF93EC0100E0D8
:1021300010E080910201282F30E00217130724F5E8
:102140009091D0019801290F311DA901440F551F0D
:10215000240F351F27533D4F869590E04C8108177B
:1021600019071CF4442331F002C0411103C040910F
:10217000C70201C040E06091C6028091C5020E9482
:102180004A0C0F5F1F4FD5CF0E94350D8C8190E018
:102190000196817099278C83DF91CF911F910F91C8
:1021A00008956091C402669570E04BE050E085E0D0
:1021B00091E00E948430892B19F481E08093DA0148
:1021C0000E9467269093D3018093D201809186026A
:1021D00080FF08C089E494E09F938F930E9470076A
:1021E0000F900F9008951092DA018091860280FF7F
:1021F00008C080E394E09F938F930E9470070F9034
:102200000F9008959091C40290FF54C09170811175
:1022100002C0926006C0853210F0986402C0880F38
:10222000982B9093C4026623B1F06091C402709120
:10223000C5028091C6029091C7020E946F0C8091E6
:10224000860280FF1BC08091C40286951F928F93E7
:102250008CE096E00BC08091860280FF0FC08091D9
:10226000C40286951F928F938EEE95E09F938F9375
:102270000E9470070F900F900F900F906091C40212
:10228000669570E04BE050E085E091E00E9484307C
:10229000892B19F00E94F31002C00E94D11081E036
:1022A0008093D5014091C7026091C6028091C5021A
:1022B0000C942D0F0895682F9091C402969581E09B
:1022C000890F853208F081E00C94021181E00C94B2
:1022D0005B11682F9091C40296958FEF890F09F4D6
:1022E00084E20C94021181E00C94691161E00C9479
:1022F00002118091C40281608093C40280918602A1
:1023000080FF0DC01F9281E08F9380E895E09F933E
:102310008F930E9470070F900F900F900F908091F5
:10232000C40286950C94761160E00C9402118091A1
:10233000D801811160C08091860280FF08C08FEAB9
:1023400096E09F938F930E9470070F900F9080915B
:10235000860280FF08C089E996E09F938F930E94D0
:1023600070070F900F900E942424811110C080915B
:10237000860280FF08C081E796E09F938F930E94BA
:1023800070070F900F900E94D7240E94810C0E942A
:102390006B0C6093C4027093C5028093C602909345
:1023A000C7026E7FC1F48091860280FF08C088E278
:1023B00096E09F938F930E9470070F900F900E945A
:1023C000810C0E946B0C6093C4027093C5028093D1
:1023D000C6029093C7020E94580C0E94900C109263
:1023E000DA018091C40280FF03C086950E94941197
:1023F00081E08093D80108958091C4028160809328
:10240000C4028091860280FF0DC01F9281E08F93ED
:1024100087E495E09F938F930E9470070F900F9031
:102420000F900F908091C40286950C949411809126
:10243000C4028E7F8093C4026091C4027091C50271
:102440008091C6029091C7020E946F0C8091860213
:1024500080FF0FC08091C40281701F928F938FE024
:1024600095E09F938F930E9470070F900F900F90AD
:102470000F900E94F3102FEF80E792E021508040F0
:102480009040E1F700C000000C94350D8091860269
:1024900080FF10C08091C402809581701F928F933D
:1024A00087EB95E09F938F930E9470070F900F909A
:1024B0000F900F908091C40280FD0C9417120C9421
:1024C00079118091C4028E7F8093C402809186022C
:1024D00080FF0CC01F921F9285ED94E09F938F9315
:1024E0000E9470070F900F900F900F900E94F310B2
:1024F0002FEF80E792E0215080409040E1F700C04C
:1025000000000C94350D0F931F93CF93DF938091B0
:10251000DA01882309F48CC08091D901E091C402CA
:10252000E695E81BE093D401823049F4F0E0E157EE
:10253000F84FE491CE2FD0E00FE81DE049C086307F
:1025400049F4F0E0E457F84FE491CE2FD0E003EAED
:102550001DE03EC0893051F4E695F0E0E757F84FB2
:10256000E491CE2FD0E000E31FE032C08F3051F471
:10257000E695F0E0EA57F84FE491CE2FD0E00BE675
:102580001FE026C0853149F4F0E0ED57F84FE491A3
:10259000CE2FD0E007EE1FE01BC0883181F08332E0
:1025A00039F4E1E8F7E0C591D49103EB1DE010C0E8
:1025B000843251F4C4EFD1E002E910E109C0C8EE61
:1025C000D3E009E510E104C0C0EDD7E009E41CE068
:1025D0008091D501882389F01092D5010E94672649
:1025E0009E0120953095820F931F9093D301809385
:1025F000D2011092D7011092D6018091D201909110
:10260000D3010E9473268C179D0790F0E091D201B0
:10261000F091D301CE0FDF1FD093D301C093D2012D
:1026200082ED91E0F801DF91CF911F910F91099414
:10263000DF91CF911F910F910895882311F0FA0136
:1026400001C0FB010994CF93DF93C82FD62F0E94BE
:102650000B0D8C1740F00E940B0D8D1720F4DF91AD
:10266000CF910C9466118C2FDF91CF910C94761141
:102670000F931F93CF93FB01C281CC2309F463C056
:102680008C010E9456238272F801E25CFC45E43121
:10269000F10508F059C0EA5AFF4F0C9464300E94CB
:1026A000461206C043E751E166E671E10E941D1340
:1026B000C0E04AC046E651E163E771E1F7CF4EEE74
:1026C0005EE061EE7EE0F2CF41EE5EE06EEE7EE037
:1026D000EDCF4CE05FE06DEF7EE0E8CF4DEF5EE0E8
:1026E0006CE07FE0E3CF4AE25FE06BE17FE0DECFCA
:1026F0004BE15FE06AE27FE0D9CF44E25DE063E175
:102700007DE0D4CF43E15DE064E27DE0CFCF81E0C6
:1027100017C065E082E010C068E086E00DC06EE0A2
:1027200089E00AC064E18FE007C067E185E104C089
:1027300088E106C062E289E10E942313B9CF83E2F7
:102740000E947611B5CFC1E08C2FCF911F910F91D0
:1027500008958091F30286958695869508958091D7
:10276000F30281FD13C082608093F3020E94632410
:102770008091860280FF08C085EB98E09F938F933D
:102780000E9470070F900F900C94DC1508958091B3
:10279000F30281FF13C08D7F8093F3020E946324B4
:1027A0008091860280FF08C088E998E09F938F930C
:1027B0000E9470070F900F900C94E8150895CF9326
:1027C000C091F302C695C1708091860280FF0CC053
:1027D0001F92CF9381ED98E09F938F930E94700793
:1027E0000F900F900F900F90CC2319F0CF910C9475
:1027F000C713CF910C94AF138091F302869581702B
:1028000008958091100108950E942424811102C02E
:102810000E94D7240E945F248093F302282F2695DC
:102820002695269530E02430310524F087708861A4
:102830008093F3028091F30280FF04C08695869511
:10284000869501C080E00C94B2152091F302822F8E
:10285000869586958695482F50E04330510554F46F
:102860008F5F982F990F990F990F822F8770892B5F
:102870008093F3028091F30281608093F3020E94BF
:1028800063248091860280FF11C08091F3028695B7
:10289000869586951F928F9388E599E09F938F93F5
:1028A0000E9470070F900F900F900F908091F3028D
:1028B0008695869586950C94B2158091F302982F93
:1028C000969596959695A1F0915E990F990F990F0F
:1028D0008770892B8093F302887F91E009F490E060
:1028E0008091F30290FB80F98093F3020E946324AD
:1028F0008091860280FF11C08091F30286958695B3
:1029000086951F928F9380E499E09F938F930E9406
:1029100070070F900F900F900F908091F3028695A3
:10292000869586950C94B2158091F30280FD1FC0A8
:1029300081608093F302813019F489E08093F3027F
:102940008091F3020E9463248091860280FF08C078
:1029500088E199E09F938F930E9470070F900F90EA
:102960008091F3028695869586950C94B21508950C
:102970008091F30280FF14C08E7F8093F3020E9447
:1029800063248091860280FF08C085E099E09F93D0
:102990008F930E9470070F900F9080E00C94B215F7
:1029A0000895CF93C091F302C1708091860280FF99
:1029B0000CC01F92CF938AE299E09F938F930E945D
:1029C00070070F900F900F900F90CC2319F0CF91BC
:1029D0000C94B814CF910C9494149091F302892F15
:1029E0008695869586958F5F8F719770843038F4C1
:1029F000880F880F880F892B8093F30202C0909371
:102A0000F3028091F302887F91E009F490E08091D5
:102A1000F30290FB80F98093F3020E94632480917B
:102A2000860280FF11C08091F30286958695869577
:102A30001F928F9381EF98E09F938F930E9470076E
:102A40000F900F900F900F908091F30286958695CE
:102A500086950C94B215843008F083E09091F302CF
:102A60009770282F220F220F220F922B9093F302A0
:102A7000987F21E009F420E09091F30220FB90F987
:102A80009093F3020C94B2150E942B158091F302DF
:102A90000C946324FC01DB0112968C918823F9F0DD
:102AA000EB5BFC45E730F105D8F4E659FF4F0C9499
:102AB000643083E001C080E00E94441580E0089506
:102AC0000E945D14FBCF0E942514F8CF0E94D11400
:102AD000F5CF0E94ED14F2CF0E94DF13EFCF81E01B
:102AE0000895279A2F9808952F980895CF92DF92EE
:102AF000EF92FF928C3724E1920728F469E070E0AE
:102B00000E941A3029C0A0E0B0E08A50974DAF4F24
:102B1000BF4F6627782F892F9A2F25EF38E241E0A3
:102B200050E00E94423069017A01CA01B9010E9455
:102B3000F02F9B01AC01C701B6010E94F02FBB270B
:102B4000A92F982F872F009721E0A207B10511F038
:102B5000BC0102C06FEF7FEFCB01FF90EF90DF90E1
:102B6000CF900895CF93C82F843050F4811109C0BD
:102B700080918000877F809380000E94741506C03A
:102B8000C3E0809180008860809380002C2F30E02B
:102B9000AFEFBFEF0E946A3023E030E040E050E04A
:102BA0000E944230C9010E94761590938D00809357
:102BB0008C00CF91089508951092DC011092DB01F2
:102BC0001092DD01EFE6F0E080818160808308955E
:102BD000EFE6F0E080818E7F80830E94A9130C9441
:102BE000B2151F920F920FB60F9211242F933F939D
:102BF0004F935F936F937F938F939F93AF93BF9305
:102C0000CF93EF93FF930E9401144091DB01509109
:102C1000DC014F5F5F4F94EF899F90011124CA013F
:102C2000B9010E941A309093DC018093DB01B90155
:102C3000660F672F661F770B71950E941A306F77AA
:102C40008091DD01823019F4603451F404C0813088
:102C500039F46F3729F480916F008E7F80936F0075
:102C6000E62FF0E0E059F64FC4910E94A913282FF7
:102C700041E051E0C49FC001C59F900D112463E065
:102C800070E00E941A30269FC001279F900D1124EA
:102C90000E94761590938D0080938C00FF91EF91A8
:102CA000CF91BF91AF919F918F917F916F915F91E4
:102CB0004F913F912F910F900FBE0F901F9018953D
:102CC0000E9471158AE08093800089E180938100E1
:102CD0008FEF9FEF90938700809386000E940414EB
:102CE0000E94FC1381110C94DC15089550B3E42F5D
:102CF000EF7021E030E001C0220FEA95EAF7352FAE
:102D0000322B30BB42954F70E42FF0E032A1422FBE
:102D10004095342342A1242B4FB7F894FC01CB01FA
:102D2000880F991F680F791F6E0F7F1FE617F7072F
:102D300089F0819198E021BB000000C087FF31BB82
:102D4000880F000000C000C000C031BB00C09A95D1
:102D500091F7ECCF4FBF87EC90E00197F1F700C0FF
:102D60000000089540EF0C9476160F931F93CF93B5
:102D7000DF93C62FD42F122FFC0182818823C9F044
:102D80006093E0010E9467269093DF018093DE014B
:102D900080E28C0F883008F057C0C77081E001C016
:102DA000880FCA95EAF7DF91CF911F910F910C948C
:102DB0009E1B8091E001681330C08091DE019091EC
:102DC000DF010E947326883C910538F500E20D0F63
:102DD000CD17B9F080E28C0F883040F4C77081E0E5
:102DE00001C0880FCA95EAF70E94A51B083028F594
:102DF00081E09D2F977001C0880F9A95EAF70E9495
:102E00009E1B812F0E948B1B0830F0F4D77081E04D
:102E100001C0880FDA95EAF70AC080E28C0F88308B
:102E200098F4C77081E001C0880FCA95EAF7DF9176
:102E3000CF911F910F910C94A51B812FDF91CF9102
:102E40001F910F910C948B1BDF91CF911F910F91CC
:102E500008959C01CB01233F4CE53407F9F078F449
:102E6000283DFCE53F07B9F0293D4CE5340711F159
:102E7000273D3C4531F526E241EE61EE1EC0253F7F
:102E8000FCE53F0799F070F0263F3C45D1F427E27E
:102E900045EE66EE12C027E245EE0EC026E241EE98
:102EA00060EE0BC027E245EE64EE07C026E241EE7D
:102EB00062EE03C028E241E065EE0E94B51680E0B4
:102EC0000895FC018281882319F01092E001089591
:102ED00081E00895CF93DF93EC01FB018281882389
:102EE00009F41FC1C230FCE5DF0708F41BC1C6317D
:102EF0009CE5D90738F09E012A5F3C452930310511
:102F000008F010C10E9441249093F9028093F802C6
:102F1000C031ECE5DE0709F4C3C008F041C0C83099
:102F20008CE5D80709F49AC0F0F4C430ECE5DE076C
:102F300009F487C068F4C2308CE5D80709F477C07B
:102F4000C330DC4509F0E3C08091F802826076C0AE
:102F5000C630ECE5DE0709F46EC008F07BC0809156
:102F6000F80288606BC0CC308CE5D80709F485C0C6
:102F700068F4CA30ECE5DE0709F474C008F079C0E3
:102F80000E94071E8091F802806858C0CE308CE500
:102F9000D80709F476C008F07FC08091F8028BC092
:102FA000CB3FECE5DE0709F44FC018F5C3318CE5E3
:102FB000D80709F47DC078F4C131ECE5DE0709F4E7
:102FC00073C0C231DC4509F0A2C00E94071E809187
:102FD000F8028F7733C0C5318CE5D80709F472C089
:102FE00008F486C0CA3FDC4509F091C08091F9021F
:102FF0003EC0CF3FFCE5DF0709F45FC058F4CD3F8A
:103000009CE5D90709F444C008F43FC08091F90257
:1030100082602DC0C130FDE5DF0709F475C008F4FA
:103020005DC0C230DD4509F072C080E06EC08091A5
:10303000F802816003C08091F80280618093F802F9
:1030400066C08091F80211C08091F902826080937D
:10305000F9025DC08091F8028062F0CF8091F802A1
:103060008064ECCF8091F80288608460E7CF816053
:10307000EECF8091F8028E7FE1CF8091F8028D7FB4
:10308000DDCF8091F802877FD9CF8091F90218C0F7
:103090008091F9028D7FDBCF8091F8028F7ECECFB9
:1030A0008091F8028F7DCACF8091F8028F7BC6CFC6
:1030B0008091F802877F8B7FC1CF8091F9028D7F4D
:1030C0008E7FC5CF8091F80282FB222720F991E004
:1030D000922790FB82F990FB83F9B0CF8091F9029F
:1030E000982F909591708E7F892B90FB81F9AFCFAF
:1030F0000E94071E8091F80287FB222720F991E0A9
:10310000922790FB87F99ACF81E00E94D924809181
:10311000F8029091F9020E9452240E94071E80E05A
:1031200001C081E0DF91CF910895CF93DF93863185
:103130009C4541F5EB010E945623982F8A812091EE
:10314000110130911201882379F09A7A81E009F413
:1031500080E08093E101911102C069E201C065E362
:10316000C9010E9496250AC08091E101811102C027
:1031700069E201C065E3C9010E94A1250E9497236D
:1031800080E001C081E0DF91CF9108959093E70145
:103190008093E6010895E091E601F091E701309710
:1031A00021F00190F081E02D099480E00895EF92E4
:1031B000FF921F93CF93DF93FC01A091E601B091A2
:1031C000E701109709F442C080911D01882341F066
:1031D0008091F80287FF04C08081818385E080832D
:1031E000EF011296ED91FC911397CE010995809114
:1031F000860282FF2BC080FF04C088EF9AE00E9405
:10320000D70618E082EFE82E8AE0F82E8091860239
:1032100080FF0BC088811F928F93FF92EF920E94D4
:1032200070070F900F900F900F9011502196111171
:10323000EDCF8091860280FF09C080EF9AE0DF9198
:10324000CF911F91FF90EF900C94D706DF91CF9113
:103250001F91FF90EF9008952091E4013091E501D6
:103260002817390771F09093E5018093E401E0910C
:10327000E601F091E701309721F00680F781E02D1B
:10328000099408952091E2013091E301281739074C
:1032900071F09093E3018093E201E091E601F091F7
:1032A000E701309721F00084F185E02D099408951D
:1032B00085B7806885BF85B7806885BF0895089504
:1032C0000C945F190C9460190C945F190C945F199D
:1032D0000E9458190E9464190C94621981E00895A3
:1032E0000E945E260E94940A0E9418270E940414DD
:1032F0000E9497110C946619CF93C82F8091860273
:1033000082FF1EC080FF04C081E19BE00E94D706BF
:103310008091860280FF0CC01F92CF938CE09BE0CF
:103320009F938F930E9470070F900F900F900F90B4
:103330008091860280FF04C08AE09BE00E94D7064D
:103340008C2FCF910C94E2077F928F929F92AF9235
:10335000BF92CF92DF92EF92FF920F931F93CF9382
:10336000DF93CDB7DEB72A970FB6F894DEBF0FBE56
:10337000CDBF0E94E60A0E946E19811111C08FEF25
:1033800089838A831B820E9467268160782F9D83B0
:103390008C8349815A816B818D810E94561A4FC05E
:1033A00049EEA42E41E0B42E00E010E0702E802FF4
:1033B0000E943B0A6C01F501819091905F01882683
:1033C00099268114910431F40F5F1F4F05301105C8
:1033D00069F7D5CF8091860281FD0E94440A80E082
:1033E000EE24E394F12C94012E213F21232B09F1AB
:1033F0008E837F82CE20DF2081E0CD2809F480E01B
:1034000088870E9467268160782F9A8789874E81F6
:103410005F8168858A850E94561A000F111FF80186
:10342000E751FE4F80819181E826F926F182E08202
:1034300006C08F5FEE0CFF1C8E30A9F6C5CF0E9430
:1034400083120E94DB150E94CB189091E801891726
:10345000C9F00E94CB188093E8012A960FB6F89421
:10346000DEBF0FBECDBFDF91CF911F910F91FF90B7
:10347000EF90DF90CF90BF90AF909F908F907F9014
:103480000C947C192A960FB6F894DEBF0FBECDBF00
:10349000DF91CF911F910F91FF90EF90DF90CF9030
:1034A000BF90AF909F908F907F900895CF93DF93C0
:1034B000CDB7DEB72B970FB6F894DEBF0FBECDBFEA
:1034C0004F83588769877A878B87DE01119686E05C
:1034D000FD0111928A95E9F785E0FE01379601908A
:1034E0000D928A95E1F749815A816B817C818D81AA
:1034F0009E810E94C0202B960FB6F894DEBF0FBEAF
:10350000CDBFDF91CF910895FC01808191810E9410
:1035100017230895CF93882309F49CC0C82F8238BD
:10352000C1F40E94CB1881FD95C069E3809111011F
:10353000909112010E9496250E9497232FEF81EE11
:1035400094E0215080409040E1F700C0000069E322
:1035500019C0833801F50E94CB1880FD7BC063E55C
:1035600080911101909112010E9496250E9497234B
:103570002FEF81EE94E0215080409040E1F700C0B1
:10358000000063E580911101909112010E94A12534
:10359000CF910C9497238438C1F40E94CB1882FDFC
:1035A00059C067E480911101909112010E94962503
:1035B0000E9497232FEF81EE94E0215080409040AD
:1035C000E1F700C0000067E4DDCF8CEF8C0F813A9B
:1035D000D0F46C2F80911101909112010E94F4247B
:1035E000882349F06C2F80911101909112010E9463
:1035F000A1250E9497236C2F8091110190911201B7
:103600000E949625C5CF80E28C0F883048F4C770A1
:1036100081E001C0880FCA95EAF70E945923B8CF0C
:10362000EBE5EC0FE33040F4F0E0EB54FE4F80812B
:1036300090E0CF910C942C19C85AC73158F4EC2F54
:10364000F0E0EE0FFF1FE957FE4F80819181CF918F
:103650000C944219CF910895882309F45BC0682F18
:10366000823879F40E94CB1881FF54C069E38091BD
:103670001101909112010E9496250E94972369E3FF
:1036800010C08338B1F40E94CB1880FF43C063E5BB
:1036900080911101909112010E9496250E9497231A
:1036A00063E580911101909112010E94A1250C9473
:1036B0009723843879F40E94CB1882FF2BC067E4EB
:1036C00080911101909112010E9496250E949723EA
:1036D00067E4E7CF8CEF860F813A18F380E2860F1C
:1036E000883048F4677081E001C0880F6A95EAF776
:1036F0000E945F23DCCF8BE5860F833020F480E0CF
:1037000090E00C942C19685A673120F480E090E026
:103710000C9442190895CF93C82F0E948A1AC93376
:1037200049F42FEF87EE93E0215080409040E1F77D
:1037300000C000008C2FCF910C942C1B882321F00B
:103740000E9459230C9497230895882321F00E9406
:103750005F230C9497230895CF92DF92EF92FF920C
:103760000F931F93CF93DF937C01D62FC72FFC01BC
:10377000058102950F70128111110E9476230E941B
:103780004F23882379F0112369F080E28D0F883070
:1037900048F082E00E94E1230E944F2391E0D82E5E
:1037A000D92601C0D12CCC2EC2948FE0C8228C2DFA
:1037B00090E08C30910508F0ABC1FC01EF58FF4F51
:1037C0000C9464308C2F807FCF70882311F0C295C9
:1037D000C07F112399F0CC2309F486C180E28D0FBC
:1037E000883010F0D11104C08C2F0E94592303C0DF
:1037F0008C2F0E9469230E94972376C18D2F0E94EF
:103800002C1BCC2309F484C180E28D0F883010F08A
:10381000D11104C08C2F0E945F2303C08C2F0E9403
:103820006F230E94972374C18C2F807FCF708032CA
:1038300011F0C295C07FDD2319F0D130C9F022C04C
:10384000112371F0002341F0013031F40E947C23F8
:103850008C2B0E9484235CC10E947C238C2B1DC076
:10386000002319F0013009F453C10E948D2325C0B3
:10387000112321F0063008F04BC10EC0053008F0CE
:1038800047C11BC0112361F0002331F0F70185818E
:1038900080FF2AC18F7085838C2F0E949E1B38C1A8
:1038A000002359F0D93309F030C1FFEF07EE13E0E0
:1038B000F15000401040E1F726C18C2F0E94A51B5B
:1038C00027C18C2F86958695837019F0813061F021
:1038D0001FC1112321F08D2F9C2F937002C080E017
:1038E00090E00E942C191CC1112321F08D2F9C2FD8
:1038F000937002C080E090E00E94421911C18C2FA9
:10390000837009F047C0111107C12D2F229526950C
:103910002770220F220F6D2F6F70862F90E0A0E08E
:10392000B0E0022E04C0880F991FAA1FBB1F0A9483
:10393000D2F7D4FF10C04FE050E060E070E004C068
:10394000440F551F661F771F2A95D2F74095509553
:103950006095709503C040E050E0BA01C695C695E9
:10396000C3708A019B01082B192B2A2B3B2BC90101
:10397000B801C23049F058F4C13019F00E949421C6
:10398000CBC00E948221C8C00E94A621C5C00E944F
:103990008021C2C0112319F08C2F817001C086953F
:1039A000882309F4B9C02D2F229526952770220F60
:1039B000220F6D2F6F70862F90E0A0E0B0E0022EF6
:1039C00004C0880F991FAA1FBB1F0A94D2F7D4FF07
:1039D00010C04FE050E060E070E004C0440F551F9D
:1039E000661F771F2A95D2F7409550956095709580
:1039F00003C040E050E0BA01C695C695C3708A0185
:103A00009B01082B192B2A2B3B2BC901B801C23073
:103A100049F058F4C13019F00E9459227DC00E942B
:103A200047227AC00E946B2277C00E94BA2174C0DC
:103A3000CF70112339F08C2F0E94E0218D2F0E942E
:103A40009E1B6AC08D2F0E94A51B8C2F0E940122F5
:103A500063C0D23F01F128F4D03F41F0D13FA1F043
:103A60003FC0D33FF9F0D43F39F13AC0112341F0C0
:103A7000053008F04DC08C2F8F710E94262248C05F
:103A8000063008F045C0F7CF112339F08C2F8F7125
:103A90000E94E0213DC01123C9F38C2F8F710E9439
:103AA000012236C0112329F08C2F8F710E94CB2167
:103AB0002FC00E94C6212CC0112349F0CF718C2F3A
:103AC0000E94E02163E08C2F0E94CC2321C081E082
:103AD0000E94E1230230E0F082E00E94E12318C05E
:103AE000112331F0002391F28D2F0E948A1A10C009
:103AF000002399F2D93349F41FEF27EE33E0115038
:103B000020403040E1F700C000008D2F0E942C1BA8
:103B100088EF8C0D843020F40E94CB180E94E207BD
:103B2000DD20C9F00E944B2380FD15C0F7011282F1
:103B30000E9445230E94E021C7010E94CC1D0E94E3
:103B40004523DF91CF911F910F91FF90EF90DF9070
:103B5000CF900C940122DF91CF911F910F91FF9094
:103B6000EF90DF90CF9008950F931F93CF93DF9343
:103B7000EC01688179818A810E9422238C010E9454
:103B80007D220E946E21B801CE010E94AC1BDF9104
:103B9000CF911F910F910895CF93DF93FC019081F6
:103BA000818123813481232B31F08F3F31F481E0F7
:103BB0009F3F19F403C081E001C080E080FD0EC08A
:103BC000EF01CF010E94FB07882341F0CE010E9444
:103BD000B41DCE01DF91CF910C94C707DF91CF9137
:103BE00008950E9476230E9479230E94972380E003
:103BF00090E00E942C1980E090E00C944219809192
:103C00001101909112010E94AC250C94F11D0E94AB
:103C100066230C94FF1DE92FE295EF704E2F50E0C4
:103C2000FA013297EE30F105B0F4E358FF4F0C94EF
:103C30006430803F91F018F4883E68F40EC0843FF1
:103C400051F40BC0883E48F0813F29F406C093FB35
:103C5000882780F9089580E0089581E008950E9402
:103C600017230E940B1E0895CF93DF9300D000D03E
:103C70001F92CDB7DEB70F900F900F900F900F905F
:103C8000DF91CF910895CF93DF9300D000D000D083
:103C9000CDB7DEB726960FB6F894DEBF0FBECDBF08
:103CA000DF91CF9108951F93CF93DF93C091F401DB
:103CB00016E08091F501C81799F0D0E01C9FF00143
:103CC0001D9FF00D1124EA50FE4F40815181628109
:103CD0007381848195810E94431E2196C770E9CF2C
:103CE000DF91CF911F9108954091260250912702B4
:103CF000609128027091290280912A0290912B02F2
:103D00000C94431E0F931F93CF93DF9380912B024C
:103D100082958F7009F05DC080912802882309F494
:103D200058C08091F4011091F501609126027091C4
:103D30002702C0912902D0912A0291E06F3F09F039
:103D400090E0292F06E0811709F443C0209721F065
:103D50007F3F21F030E003C031E001C0322F90E01E
:103D600030FD34C0089FF001099FF00D1124DF01E0
:103D7000AA50BE4F11963C911197371327C03C9122
:103D8000361324C012963C91129731111FC013961E
:103D90004D915C9114974C1B5D0B483C5105B0F460
:103DA00080912B028F70806180932B02E550FE4F33
:103DB00080818F708061808386E292E00E94CC1DBA
:103DC000DF91CF911F910F910C94531E0196877034
:103DD000BACFDF91CF911F910F9108959F92AF922B
:103DE000BF92CF92DF92EF92FF920F931F93CF93E8
:103DF000DF93CDB7DEB761970FB6F894DEBF0FBE85
:103E0000CDBF8C0185E0F801DE011D9601900D9279
:103E10008A95E1F7F80140815181E2809091260274
:103E2000609127022091290230912A022115310543
:103E300031F06F3F31F481E09F3F19F403C081E01E
:103E400001C080E0F82FF1709F2E80FD46C1F8017F
:103E5000A380B48086E2C82E82E0D82EF09028029B
:103E6000F501E21BF30BFF2009F4DFC080912B0268
:103E7000E83CF10508F09BC0282F207F09F052C0D4
:103E8000561313C0491311C0FE2CE1100EC08F70E1
:103E9000806180932B020E94741EC6010E94CC1D7B
:103EA00080912B02F801858358C1AB2831F05F3F28
:103EB00031F481E04F3F19F403C081E001C080E09C
:103EC00080FD03C081E08E2502C080E090E0F82FE5
:103ED000F170FF2E80FF1CC08091F4012091F5014C
:103EE00036E0821709F417C190E0389FF001399F3E
:103EF000F00D1124EA50FE4F6181561306C0608117
:103F0000461303C06281E61203C001968770E9CFB1
:103F1000FE2CEE2009F421C180912B028160809358
:103F20002B025AC0561306C0491304C0E11002C048
:103F3000F8019FC04D875E878D859E850E942F1E4C
:103F4000882379F1EE2069F120912B02822F82954E
:103F50008F7090E0029774F0809126029091270272
:103F600098878F831986BB86AA862C87CE010796F1
:103F70000E94CC1D86E0F801A6E2B2E001900D920D
:103F80008A95E1F70E94821E0E94741E0DC056178A
:103F900029F14D875E878D859E850E942F1E811198
:103FA0002CC0C8010E94CC1DFF24F394D6C0282F3A
:103FB000207F69F77A2DB98AA88A6E2D89890E9497
:103FC000341E86E292E00E94CC1D86E0F60111923A
:103FD0008A95E9F70E94741EF12CBFC04913D9CF0E
:103FE000E110D7CFF8018583C8010E94CC1D86E07F
:103FF000F60111928A95E9F7B0C0EE2091F2209176
:104000002B02822F82958F7090E002970CF4B2CF32
:1040100080912602909127029A8389831B82BD8218
:10402000AC822E83CE010196A3CFE83CF10508F0C7
:1040300047C0FE2CEE2009F4B4CF561330C049130C
:104040002EC020912B0220FD21C0822F82958F70DF
:10405000482F50E041155105C9F0F80125834F3034
:10406000510541F08F5F982F9295907F822F8F702E
:10407000892B8583C8010E94CC1D86E0F801A6E249
:10408000B2E001900D928A95E1F742C086E0F80116
:10409000A6E2B2E001900D928A95E1F75EC04D87ED
:1040A0005E878D859E850E942F1E811163CF809132
:1040B0002B02816080932B02C8010E94CC1D4DC051
:1040C0007A2DB98AA88A6E2D89890E94341E86E0CD
:1040D000F60111928A95E9F71BC0EE2009F461CF31
:1040E0004D875E878D859E850E942F1EF82E882322
:1040F00009F457CF86E0F801A6E2B2E001900D92F4
:104100008A95E1F786E292E00E94841A0E94821E5C
:104110000E94741E22C04D875E878D859E850E94F9
:104120001723292F22952F70223028F49F7039F001
:10413000811105C00BC0243028F49F7049F4805EC3
:10414000883020F0C8010E94CC1D9F2CF92C05C09E
:10415000F8019581907F99F7F9CF8F2D61960FB671
:10416000F894DEBF0FBECDBFDF91CF911F910F91AD
:10417000FF90EF90DF90CF90BF90AF909F90089509
:104180001F93CF93DF93CDB7DEB72C970FB6F8947C
:10419000DEBF0FBECDBF4F83588769877A878B8775
:1041A0009C87CE0107960E94EE1E8823D1F09F8146
:1041B00088852A853B85232B31F08F3F31F481E0C0
:1041C0009F3F19F403C081E001C080E080FD47C03B
:1041D0004F81588569857A858B859C850E94431E11
:1041E0003EC086E0FE013796DE01119601900D92E9
:1041F0008A95E1F7FF81E8856A857B856115710500
:1042000031F0EF3F31F481E0FF3F19F403C081E06A
:1042100001C080E080FD23C02091F50130E0C9019C
:104220000196877099274091F40150E08417950713
:10423000F1F1F983EA837D836C8396E0929FD0014C
:10424000939FB00D1124AA50BE4FFE0131960190EC
:104250000D929A95E1F78093F5010E94531E16E0A6
:104260008091F4019091F501891771F1189FC001B7
:1042700011248A509E4F0E94EE1E882329F1E0915E
:10428000F4011E9FF0011124EA50FE4F408151813C
:1042900062817381848195810E94431E8091F40123
:1042A00090E00196877099278093F401D9CF0E94FE
:1042B000071E1092F5011092F401E6E2F2E086E0AA
:1042C000DF011D928A95E9F72C960FB6F894DEBFB0
:1042D0000FBECDBFDF91CF911F910895089508952E
:1042E0000C946F210C9470210E94722160935D02E6
:1042F00070935E0280935F02909360020C94F11DB4
:104300000C9474210F931F9300915D0210915E0233
:1043100020915F0230916002602B712B822B932BD6
:104320001F910F910C9474210F931F9300915D02C4
:1043300010915E0220915F02309160026023712330
:10434000822393231F910F910C9474210F931F9339
:1043500000915D0210915E0220915F023091600237
:1043600060277127822793271F910F910C94742146
:104370000C946F210E94B8216093590270935A02E5
:1043800080935B0290935C020C94F11D60E070E0FE
:10439000CB010C94BA210F931F9341E050E060E0F1
:1043A00070E08A019B0104C0000F111F221F331F00
:1043B0008A95D2F7C901B8011F910F910C94BA21C7
:1043C0000F931F9341E050E060E070E004C0440FA1
:1043D000551F661F771F8A95D2F7809159029091D9
:1043E0005A02A0915B02B0915C028A019B01082BEA
:1043F000192B2A2B3B2BC901B8011F910F910C944B
:10440000BA210F931F9341E050E060E070E004C0D8
:10441000440F551F661F771F8A95D2F74095509518
:10442000609570958091590290915A02A0915B021B
:10443000B0915C028A019B01082319232A233B23A4
:10444000C901B8011F910F910C94BA210F931F93CA
:1044500041E050E060E070E004C0440F551F661F6B
:10446000771F8A95D2F78091590290915A02A091B4
:104470005B02B0915C028A019B01082719272A2759
:104480003B27C901B8011F910F910C94BA210F93DA
:104490001F930091590210915A0220915B023091B2
:1044A0005C02602B712B822B932B1F910F910C942C
:1044B000BA210F931F930091590210915A02209133
:1044C0005B0230915C0260237123822393231F914E
:1044D0000F910C94BA210F931F93009159021091E0
:1044E0005A0220915B0230915C026027712782277B
:1044F00093271F910F910C94BA2108952EE0929F5B
:10450000800D1124E82FE695E695E695877051E039
:1045100001C0550F8A95EAF785E0E89FF001112464
:10452000E45DFD4F20E030E070E04081CB01022EE1
:1045300002C0969587950A94E2F781708195842749
:104540008523842781932F5F3F4F2530310569F7FD
:1045500008952EE0929F800D1124682F6695669530
:104560006695982F977085E0689FB001112440E010
:1045700050E080E0FB01E40FF51FE45DFD4F20817A
:1045800030E0092E02C0369527950A94E2F7217093
:104590003327042E01C0220F0A94EAF7822B4F5FC3
:1045A0005F4F4530510531F70895BF92CF92DF92AA
:1045B000EF92FF920F931F93CF93DF938C01C090E4
:1045C0005902D0905A02E0905B02F0905C02809118
:1045D0005D0290915E02A0915F02B0916002C82AD4
:1045E000D92AEA2AFB2ACFE1D0E0D701C6010C2E56
:1045F00004C0B695A795979587950A94D2F780FD44
:1046000004C0219790F7B12C07C0BC2EB8018C2FA5
:104610000E9473080197A9F38B2DDF91CF911F9111
:104620000F91FF90EF90DF90CF90BF900895CF93C0
:10463000DF93EC010E94D522BE010E947308DF9136
:10464000CF9108951F93CF93DF93EB019091F301E6
:10465000992321F0CB010E94172313C0882349F02E
:10466000CB010E94D522182F682FCE010E947E22F6
:1046700004C0CB010E94A922182FBE01812F0E94E5
:104680007308DF91CF911F91089580916102859504
:104690008595859508958091610287700895909120
:1046A0006102977081E009F480E0089580918502AD
:1046B000089590918502892B8093850208958095B5
:1046C0009091850289238093850208951092850236
:1046D000089590918402892B809384020895809597
:1046E0009091840289238093840208951092840219
:1046F00008951092830208958091620208950895AA
:104700000C947F230C94802390916202981721F0DF
:10471000809362020C948223089580916202882320
:1047200029F01092620280E00C9482230895E091B7
:104730001101F0911201809185028083E0911101B5
:10474000F0911201908180918402892B8083E09105
:104750001101F0911201908180918302892B808355
:1047600080916202882381F0E0911101F0911201A1
:104770009081892B808380911101909112010E9478
:10478000DE2481110E948D238091110190911201EC
:104790000C94D7180C947F2398E0899F90011124E2
:1047A000262B209361020E94E02180916102859571
:1047B000859585950C94CA231092610280E00C9433
:1047C000CA23209161028095822380936102982FF1
:1047D000977079F430E0482F082E000C550B241701
:1047E000350739F08595859585950E9401220C94B1
:1047F000DC2308959093C9018093C80108958295A0
:10480000982F937344E0949F900111248C7C86959B
:104810008695282B822F8575880F2A7A2695822BDC
:104820000895CF93DF93D92F0E94FF23C82F8D2F98
:104830000E94FF232C2F30E0322F2227A901482B82
:10484000CA01DF91CF91089580E090E00E949F30EF
:1048500021E08C3E9E4F09F020E0822F089582E0F7
:1048600090E00C949130682F82E090E00C94A53099
:1048700083E090E00C949130682F83E090E00C94FA
:10488000A530CF9384E090E00E949130C82F81E260
:1048900090E00E9491302C2F30E0A901582BCA01E2
:1048A000CF910895CF93C92F682F84E090E00E94A4
:1048B000A5306C2F81E290E0CF910C94A53086E07A
:1048C00090E00C949130682F86E090E00C94A53035
:1048D000AB01BC018FE090E00C94B730AB01BC01A0
:1048E00083E190E00C94B73060E070E0CB010C9471
:1048F0006E2460E070E0CB010E9468240C94742464
:104900006CEE7EEF80E090E00E94C33060E082E0D9
:1049100090E00E94A53060E083E090E00E94A53026
:1049200010925D0210925E0210925F02109260027D
:1049300060E084E090E00E94A53060E081E290E0D9
:104940000E94A53060E085E090E00E94A53060E024
:1049500086E090E00E94A5306FEF87E090E00E9433
:10496000A53040E050E0BA0188E090E00E94B73006
:1049700060E08DE090E00E94A53040E050E0BA0198
:1049800088E190E00E94B73060E087E190E00E940B
:10499000A53040E050E0BA018CE190E00E94B730D1
:1049A00060E080E290E00E94A5300C9479240C94A1
:1049B0008024682F8EE090E00C94A530FC013296A4
:1049C00080911D01882331F08091F80287FF02C099
:1049D0009EE101C096E080E0915028F021912223D1
:1049E000D9F38F5FF9CF0895662351F120911D010E
:1049F0002223E9F02091F80227FF19C0462F46959F
:104A0000469546954E31E0F4677021E030E002C0F3
:104A1000220F331F6A95E2F7FC01E40FF11D82813A
:104A200090E02823392381E0232B69F409C0FC019D
:104A3000329608962191621729F0E817F907D1F705
:104A400080E0089581E008959C01FC0132969FEF7B
:104A500080E04191461789F09F3F19F4411101C050
:104A6000982F8F5F8630A9F79F3F39F0F901E90F42
:104A7000F11D97FDFA956283089508959C012A5FC0
:104A80003F4FFC014281461301C0128201968217FA
:104A90009307B9F70895262F2695269526952E314A
:104AA00070F4FC01E20FF11D677021E030E001C0FD
:104AB000220F6A95EAF78281282B2283089580913C
:104AC000860280FF0CC01F926F9382E49BE09F934D
:104AD0008F930E9470070F900F900F900F90089582
:104AE000262F2695269526952E3178F4FC01E20F87
:104AF000F11D677021E030E001C0220F6A95EAF7EE
:104B0000209582812823228308958091860280FF48
:104B10000CC01F926F9384E29BE09F938F930E943F
:104B200070070F900F900F900F90089520911D0126
:104B3000222329F02091F80227FD0C944B250C9498
:104B4000242520911D01222329F02091F80227FD20
:104B50000C9470250C943E2520911D01FC01329689
:104B6000222331F08091F80287FF02C08EE101C05C
:104B700086E0DF011D928A95E9F7089508950C9467
:104B8000BE250C94BE25CF930E94C1250E94E60A43
:104B90000E94BF25C0E08C2F0E943B0A892B29F47C
:104BA000CF5FC530C1F780E001C081E0CF910895AB
:104BB0000C94BE250C94D8250E94DA258091FE0223
:104BC000843009F43CC01092870220E488E190E030
:104BD0000FB6F894A895809360000FBE20936000F4
:104BE00080E00E94B21580E00E94E2070E94F3106C
:104BF0008091880281110AC081E0809388028091AF
:104C0000C4028170809389020E9461120E94DA2599
:104C100083B7817F846083BF83B7816083BF7894CB
:104C2000889583B78E7F83BF0FB6F894A89580913F
:104C30006000886180936000109260000FBE08954C
:104C40000C94BE250E94071E0E9404140E94CB18DB
:104C50000E94E207109288028091890281110E94CD
:104C6000FC110E94D1100C9420261F920F920FB6B7
:104C70000F9211248F939F93AF93BF9380918702DC
:104C8000811113C08091F4029091F502A091F60277
:104C9000B091F7024196A11DB11D8093F40290934B
:104CA000F502A093F602B093F702BF91AF919F91E6
:104CB0008F910F900FBE0F901F90189582E084BDCA
:104CC00093E095BD9AEF97BD80936E0008952FB73E
:104CD000F8948091F4029091F502A091F602B091BF
:104CE000F7022FBF08959C014FB7F8948091F4020A
:104CF0009091F502A091F602B091F7024FBF821B8E
:104D0000930B089578941F920F920FB60F9211246F
:104D10008F939F93AF93BF938091F4029091F5028C
:104D2000A091F602B091F7020196A11DB11D8093EA
:104D3000F4029093F502A093F602B093F702BF91AC
:104D4000AF919F918F910F900FBE0F901F9018956C
:104D500081E08093E00080E28093D8001092C90047
:104D60008FE19EE40197F1F700C0000087E090EB2F
:104D7000DC018093070390930803A0930903B09389
:104D80000A039CE088E10FB6F894A8958093600030
:104D90000FBE90936000FFCFAF92BF92CF92DF9291
:104DA000EF92FF920F931F93CF93C0E0CC24C39454
:104DB000D12CE82EF12C8C2F0E943B0A5C0100E0E4
:104DC00010E0C601002E02C0880F991F0A94E2F776
:104DD0008A219B21892B31F40F5F1F4F0E30110563
:104DE00081F70AC0602F7C2F80E00E946008E816DF
:104DF000F90691F781E004C0CF5FC530E1F680E0AD
:104E0000CF911F910F91FF90EF90DF90CF90BF90C7
:104E1000AF900895CF93C82F8CE20E94CC268823B0
:104E200021F08C2FCF910C94CC2680E0CF91089567
:104E3000CF930E942424811102C00E94D72487E6C8
:104E40009BE00E94D706C5E6C15049F00E94E60AE1
:104E50008FE39CE90197F1F700C00000F5CF80E6F1
:104E60009BE00E94D70689E20E940A27811120C197
:104E70008AE20E940A2781110E94D72485E00E94BD
:104E80000A2781110E94A8260E942F24809386025F
:104E900087E00E940A278823A9F18BE10E940A2754
:104EA000882351F08091860281FB222720F991E02E
:104EB000922790FB81F90EC08EE00E940A2788237A
:104EC00061F08091860282FB222720F991E09227EF
:104ED00090FB82F98093860215C080E10E940A2728
:104EE00090918602882341F093FB222720F981E0EC
:104EF000822780FB93F904C0892F809580FB90F96D
:104F000090938602809186020E9433240E9441245D
:104F10009093F9028093F80280EE0E940A2788237A
:104F200041F08091F802982F909590FB80F9809342
:104F3000F80289E30E940A27882359F08091F80239
:104F400081FB222720F991E0922790FB81F9809341
:104F5000F80282EE0E940A27882359F08091F80215
:104F600082FB222720F991E0922790FB82F980931F
:104F7000F80286EE0E940A27882359F08091F802F1
:104F800083FB222720F991E0922790FB83F98093FD
:104F9000F80283EE0E940A27882359F08091F802D4
:104FA00084FB222720F991E0922790FB84F98093DB
:104FB000F80285E30E940A27882359F08091F802BD
:104FC00085FB222720F991E0922790FB85F98093B9
:104FD000F80281E30E940A27882359F08091F802A1
:104FE00086FB222720F991E0922790FB86F9809397
:104FF000F80281E10E940A27882359F08091F80283
:1050000087FB222720F991E0922790FB87F9809374
:10501000F8028091F8029091F9020E94522487E2EE
:105020000E940A27C82F8EE10E940A278111C260C0
:105030008FE10E940A278111C46080E20E940A2742
:105040008111C86081E20E940A278111C06182E259
:105050000E940A278111C06283E20E940A278111FF
:10506000C06484E20E940A27882311F0C06802C04D
:10507000CC2329F08C2F0E943C246C2F03C00E946B
:105080003824682F70E080E090E00E9480218FE05B
:105090000E940A27882319F081E00E94D92485E123
:1050A0000E940A27882321F080E0CF910C94D92414
:1050B000CF9108958091AD02089508959FB7F89417
:1050C00010928C029FBF9091FE02943009F057C05D
:1050D0009091E9009F703091EC00232F217030FDFA
:1050E00020E8922B23E02093E9002091EB0020FFA1
:1050F00043C02091EE0027FF3FC020918A02222367
:1051000021F02091E80025FF37C010928A0226E0A6
:105110003091E80035FD15C03091FE02343061F564
:105120003091EB0035FD28C0215021F481E08093BF
:105130008A0222C0EFE9FFE03197F1F700C00000DA
:10514000E7CF8093F1008091E80085FD0AC080914F
:10515000E80080FFFCCF8091E8008E778093E80024
:1051600006C08FB7F89421E020938C028FBF9F7008
:105170009093E90080E008959F709093E9008FEF8D
:105180000895CF93DF9300D01F92CDB7DEB79091F3
:10519000FE02943019F589837B836A8382E08093D1
:1051A000E9008FEF9091E800815095FD06C095EDE4
:1051B0009A95F1F700008111F5CF8091E80085FF05
:1051C0000DC040E050E063E070E0CE0101960E9427
:1051D000532B8091E8008E778093E8000F900F901A
:1051E0000F90DF91CF910895CF93DF93EC010E9450
:1051F000362B823011F0843031F4BE0184E0DF912F
:10520000CF910C94C128DF91CF910895BC0183E028
:105210000C94C128CF93DF93EC010E94362B82308F
:1052200011F08430D9F580911D01882339F08091E7
:10523000F80287FF03C060E282E002C068E081E01C
:105240008093E9008FEF9091E800815095FD06C0B2
:1052500095ED9A95F1F700008111F5CF8091E80066
:1052600085FF1CC080911D01811105C040E050E008
:1052700068E070E003C070E040E050E0CE010E94C2
:10528000532B8091E8008E778093E80080E2FE0146
:10529000ADE8B2E001900D928A95E1F7DF91CF91F0
:1052A000089581EA9BE00E94D7068091FD0281115A
:1052B00009C00E94E42C0E94412D8091E20084608C
:1052C0008093E20008958DE99BE00E94D70610923A
:1052D000FD02089589E99BE00C94D70685E99BE0DF
:1052E0000C94D70681E99BE00E94D7060C942226F5
:1052F00020918B022F5F822F62E30E94003099235E
:1053000019F020938B02089510928B0280918C02E9
:10531000882371F18091FE02843041F58091E9008B
:105320008F702091EC00922F917020FD90E8892BD6
:1053300093E09093E9009091EB0090FF14C090915E
:10534000EE0097FF10C09091E80095FF03C0109207
:10535000F100F9CF9091E80090FF05C09091E8002E
:105360009E779093E8008F708093E90010928C02F2
:10537000089542E061EC81E00E945D2C42E261EC24
:1053800082E00E945D2C42E261EC83E00C945D2C93
:1053900080910003833009F460C030F4813071F0F3
:1053A000823009F499C008958A3009F485C08B30A1
:1053B00009F46BC0893009F0A7C020C08091FF02BA
:1053C000813A09F0A1C08091E800877F8093E800CE
:1053D0008091030390910403892B21F460E28DE80E
:1053E00092E003C060E080E090E070E00E949E2BBD
:1053F0008091E8008B778093E80008958091FF0208
:10540000813209F081C080910303909104030297D7
:1054100008F07AC08091E800877F8093E80080914F
:10542000E80082FD05C08091FE028111F8CF6CC0BA
:105430002091F3008091F20090E0922B029729F4E2
:105440008091F1008B7F813021F48091F100809375
:10545000AD028091E8008B7753C08091FF02813AC2
:1054600009F052C08091030390910403892B09F045
:105470004BC08091E800877F8093E8008091E8002E
:1054800080FFFCCF80911D0136C08091FF028132E8
:10549000D9F58091030390910403892BA9F580919C
:1054A000E800877F8093E8000E94922C809101039E
:1054B00080931D010C94071E8091FF02813221F51B
:1054C0008091E800877F8093E8000E94922C809171
:1054D00002038093AE0208958091FF02813AA1F405
:1054E0008091E800877F8093E8008091E80080FF4A
:1054F000FCCF8091AE028093F1008091E8008E771E
:105500008093E8000C94922C089584B7877F84BF21
:105510000FB6F894A8958091600088618093600030
:10552000109260000FBE90E080E80FB6F894809370
:105530006100909361000FBE0E9468190E94E42CE4
:105540000E94412D8091E20084608093E2008EE50C
:1055500098E20E94FA2378940E94D52F0E94701935
:1055600083E191E00E94C61880E89BE00E94D70684
:105570008091FE02853089F48CE79BE00E94D7067B
:105580000E94DC258091FC02882391F30E94C325B0
:10559000882371F30E943D2BEBCF0E94A419E8CF22
:1055A0000C94D22A292F332723303105C9F060F417
:1055B0002130310581F02230310509F047C08BE5FB
:1055C00090E027EC3BE046C02132310511F1223258
:1055D000310561F13BC082E190E022E23CE03AC05B
:1055E00099278130910561F040F08230910559F0A2
:1055F000039761F5E5EAFBE008C0E3ECFBE005C0DA
:10560000E9EBFBE002C0EBEAFBE0849190E09F0154
:1056100021C063307105D0F4660F771FFB01EF5393
:10562000FE4F2081318189E090E014C06330710524
:1056300068F4FB01EE0FFF1FE554FE4F208131811E
:10564000FB01E854FE4F808190E004C080E090E0D0
:1056500020E030E0FA013183208308958091FE023A
:10566000843011F081E0089582E008958091AF02C6
:10567000811102C00C942E2B089580E189BD82E136
:1056800089BD09B400FEFDCF8091D8008F7D809345
:10569000D8008091E00082608093E0008091E0007B
:1056A00081FDFCCF0895CF92DF92EF92FF920F938E
:1056B0001F93CF93DF93EC018B017A010E94B12CF1
:1056C000811133C0E114F10439F0F7018081918137
:1056D000081B190BC80FD91FC12CD12C011511059E
:1056E00019F18091E80085FD16C08091E8008E7761
:1056F0008093E800E114F10449F0F7018081918181
:10570000C80ED91ED182C08285E00FC00E94B12C84
:10571000882321F30AC089918093F1000150110977
:10572000FFEFCF1ADF0ADACF80E0DF91CF911F9130
:105730000F91FF90EF90DF90CF9008952091050397
:10574000309106032617370748F06115710539F4C3
:105750002091E8002E772093E80001C0B901FC01F8
:1057600020E06115710579F18091FE028823F1F145
:105770008530F1F18091E80083FD3CC08091E80024
:1057800082FD2EC08091E80080FFEBCF2091F300D6
:105790008091F20090E0922B6115710551F08830F4
:1057A000910538F421912093F1006150710901961F
:1057B000F3CF21E0089709F020E08091E8008E7790
:1057C0008093E800CECF2111CFCF0AC08091FE0296
:1057D000882361F0853061F08091E80083FD0AC084
:1057E0008091E80082FFF2CF80E0089582E0089582
:1057F00083E0089581E00895209105033091060328
:105800002617370748F06115710539F42091E80033
:105810002E772093E80001C0B901FC0120E061155A
:10582000710591F18091FE02882309F440C0853012
:1058300009F43FC08091E80083FD3DC08091E800FD
:1058400082FD2FC08091E80080FFE9CF2091F30016
:105850008091F20090E0922B6115710559F088302B
:10586000910540F424912093F10031966150710923
:105870000196F2CF21E0089709F020E08091E8003E
:105880008E778093E800CBCF2111CCCF0AC08091D6
:10589000FE02882361F0853061F08091E80083FD8D
:1058A0000AC08091E80082FFF2CF80E0089582E094
:1058B000089583E0089581E00895982F973068F562
:1058C0009093E900981739F07091EC002091ED0069
:1058D0005091F00003C0242F762F50E021FD02C02C
:1058E0009F5FECCF3091EB003E7F3093EB00309127
:1058F000ED003D7F3093ED003091EB00316030934F
:10590000EB007093EC002093ED005093F000209199
:10591000EE0027FDE5CF80E008958F708093E900C9
:1059200081E008958091FF0287FF11C08091E80017
:1059300082FD05C08091FE028111F8CF11C08091D7
:10594000E8008B770BC08091FE02882349F080919C
:10595000E80080FFF8CF8091E8008E778093E80020
:1059600008952091E4003091E50095E64091EC0027
:10597000842F817040FF23C08091E80080FD1DC00E
:105980008091FE02882399F0853099F08091EB0098
:1059900085FD11C04091E4005091E50024173507C2
:1059A00029F3915011F09A01E1CF84E0089582E04B
:1059B000089583E0089581E0089580E0089540917E
:1059C000E80042FFDDCF08950E94522D0E945A2D1B
:1059D000E0EEF0E0808181608083E8EDF0E080819E
:1059E0008F77808319BCA7EDB0E08C918E7F8C936C
:1059F00080818F7E80831092FD0208950F931F9304
:105A0000CF93DF930E94522D0E945A2DC8EDD0E013
:105A100088818F77888388818068888388818F7D5B
:105A2000888319BC1092FE021092FA021092FC02B6
:105A30001092FB0200EE10E0F80180818B7F8083E2
:105A400088818160888342E060E080E00E945D2C74
:105A5000E1EEF0E080818E7F8083E2EEF0E08081F5
:105A600081608083808188608083F80180818E7F5F
:105A70008083888180618883DF91CF911F910F910E
:105A80000895E8EDF0E080818F7E8083E7EDF0E01F
:105A900080818160808384E082BF81E08093FD0209
:105AA0000C94FE2CE8EDF0E080818E7F80831092D4
:105AB000E20008951092DA001092E10008951F921A
:105AC0000F920FB60F9211242F933F934F935F9332
:105AD0006F937F938F939F93AF93BF93EF93FF93B6
