:100000000C94DC010C947D090C9423020C942302C3
:100010000C9423020C9423020C9423020C942302CC
:100020000C9423020C9423020C94EB200C94BD211D
:100030000C941E170C9423020C9423020C9423029C
:100040000C9423020C9423020C9423020C9423029C
:100050000C9423020C9486170C9423020C94230214
:100060000C9423020C9423020C9423020C9423027C
:100070000C9423020C9423020C9423020C9423026C
:100080000C9423020C9423020C9423020C9423025C
:100090000C9423020C9423020C9423020C9423024C
:1000A0000C9423020C9423020C942302C50CC50C5F
:1000B000F70CF70C440D620DBA0EBA0EA40D390EF2
:1000C0004A0E4A0EAA0EBA0EBA0EB30E4F0F4F0FBB
:1000D000610F610F580F610F610F610F4F0F4F0FCD
:1000E0005D0F610F610F5D0F2A22512249235122BA
:1000F00049239D22C02249231723262329001E00BD
:100100001F002000210022002B0014001A0008000C
:1001100015001700015104001600070009000A002D
:10012000E1001D001B00060019000500E300E000CF
:10013000E2002D002C002C002A00270026002500BC
:10014000240023003100130012000C0018001C00D2
:10015000340033000F000E000D000B002872380031
:100160003700360010001100E70002510151E40091
:10017000E6002E000000000000000000000000006B
:1001800000000000520000000000000000005000CD
:1001900051004F00000000000000000000000000BF
:1001A0000000A800000000000000000000002F0078
:1001B0004C000000000000000000000030002F0094
:1001C00000000000000000004B004A00000000009A
:1001D0000000000000004E004D000000A900AA0031
:1001E0000000000000000000000030003A003B006A
:1001F0003C003D003E003F00000000000000000009
:10020000430000000000350235000000000000003F
:1002100000000000000000000000000000000000DE
:100220000000000000002F0245004400430042008F
:10023000410040000000000000000000000000003D
:1002400000000000000000000000000000000000AE
:10025000000000000000000000000000000000009E
:10026000000030020403300000002A03540068003C
:10027000650020004E007900710075006900730070
:10028000740020004B006500790062006F0061007F
:100290007200640000000E034B0065006500620000
:1002A00069006F0000000403090409023B00020119
:1002B00000A0FA0904000001030101000921110155
:1002C00000012240000705810308000A090401001B
:1002D000010300000009211101000122810007052E
:1002E000820320000A120110010000000810CB5602
:1002F0001100010102030105010902A101850209A2
:1003000001A10005091901290515002501950575AB
:10031000018102950175038101050109300931153B
:1003200081257F95027508810609381581257F95FD
:100330000175088106050C0A38021581257F950193
:1003400075088106C0C005010980A1018503190156
:100350002AB700150126B700950175108100C00568
:100360000C0901A101850419012AA002150126A08A
:1003700002950175108100C005010906A10105075C
:1003800019E029E7150025019508750181029501FD
:10039000750881010507190029FF150026FF009542
:1003A0000675088100050819012905950575019153
:1003B00002950175039101C011241FBECFEFDAE051
:1003C000DEBFCDBF04B603FE27C080917A029091B4
:1003D0007B02A0917C02B0917D028730904BA740B8
:1003E000B04BD1F410927A0210927B0210927C02F0
:1003F00010927D0214BE84B7877F84BF0FB6F89435
:10040000A8958091600088618093600010926000E0
:100410000FBEE0E0F8E3099511E0A0E0B1E0EEEDF9
:10042000F7E402C005900D92AA39B107D9F722E08E
:10043000AAE9B1E001C01D92AA37B207E1F70E9414
:100440001A1E0C94ED230C9400000C94FD0481E022
:10045000089581E008950C94290208950C942D02CA
:100460001F93CF93DF9300D000D01F92CDB7DEB79C
:1004700049835A836B832091BC0189819A81211120
:1004800012C0662349F00E94A114182F682F898199
:100490009A810E94481403C00E947414182F698125
:1004A0007A81812F04C00E94A11469817A810F9002
:1004B0000F900F900F900F90DF91CF911F910C94A0
:1004C000E302FC01408151816281738184810C943B
:1004D0003002CF93DF93EC010E946102BE01DF91F5
:1004E000CF910C942E020E94D315811102C00E945C
:1004F00073160C9425020C94FB0408950C947D0251
:1005000081E008950C948002CF93C82F0E947E0250
:100510008C2F0E948202CF91089508950E943D0F72
:100520000E948D022FEF84E39CE021508040904098
:10053000E1F700C0000087E797E7909301088093F8
:1005400000080C94AC170F931F93CF93DF93EC012B
:100550000E9461028C01BE010E942B02882349F196
:10056000BE01C8010E943707882319F1BE01C801E6
:100570000E9478078823E9F0BE01C8010E94A30801
:100580008823B9F08A81882369F001158CE5180762
:1005900031F00E3D1C4531F40E9473160AC00E94D2
:1005A0008E0207C0CE01DF91CF911F910F910C9465
:1005B000270280E0DF91CF911F910F91089580E095
:1005C00090E0089508952CE3829FC0011124FC015E
:1005D00026E0729FE00DF11D1124E60FF11DEE0FD4
:1005E000FF1FE450FF4F859194910895880F991F44
:1005F000FC01EC59FD4F859194910895CF93DF93C1
:100600000E94E3020E941604EC018115904508F057
:1006100041C0C11580E4D80708F0D1C0C83ED1055B
:1006200010F5C03ED10508F0FDC0C83AD10578F4F8
:10063000C53AD10508F0A2C0C130D10509F4F2C015
:1006400008F4EEC0C430D10508F0ECC0E9C0CF3BDF
:10065000D10508F49BC0C03CD10508F4E1C0CE012F
:10066000805C91099EC0C11590E2D90758F4C1156C
:1006700021E0D20708F0D6C0C03FD10508F4D0C0B1
:10068000D065D0C0C11580E3D80708F08EC0CE0178
:100690009F7087C0C11595E5D90708F043C0C11503
:1006A00024E5D20708F0A2C0C11582E5D80708F5F5
:1006B000C11591E5D90708F085C0CE0174E0969583
:1006C00087957A95E1F783709C2F937021E030E055
:1006D00002C0220F331F9A95E2F73C68382BCF7087
:1006E000C695C69580E2C89FE0011124C22BD32B8A
:1006F00099C09E01237033278C2F86958695C1154E
:10070000D34508F064C0C1E0D0E002C0CC0FDD1FCB
:100710002A95E2F720E2829FC0011124C82BD92B31
:10072000DC6880C0C11529E5D207A0F4C11588E5B1
:10073000D80708F060C0C11596E5D90708F070C069
:100740008C2F0E94AA048F71C82FD0E0DC2FCC27F9
:10075000D06268C0C1152AE5D20708F451C0CE01A5
:1007600090568115904208F05BC08D2F8F710E94CA
:10077000AA04DD27D0628F71D82B54C0C55AD0E0AF
:10078000C45BDE4FC881D0E0D0644CC0C85AD0E012
:10079000CC0FDD1FC25EDE4F0990D881C02DD4641E
:1007A00041C00E94F602EC013DC0CE019927D3FF63
:1007B00003C0EC01D86C36C0EC01D06C33C0DF70E4
:1007C000D06A30C0DC2FCC27C16FD06A2BC0C1E00B
:1007D000D0E002C0CC0FDD1F2A95E2F720E2829F15
:1007E000C0011124C82BD92BDA681CC0DC2FCC2700
:1007F000C46FD06A17C0DC2FCC27C06FD06A12C07C
:100800008C2F8F700E94AA0494E0D695C7959A9574
:10081000E1F7CF70D0E0DC2FCC27D069C82B02C025
:10082000C0E0D0E0CE01DF91CF91089582389105EC
:1008300069F1B0F48133910509F46DC048F489324F
:10084000910509F463C08A32910509F469C00895DD
:100850008533910509F455C089339105B9F00895A0
:10086000833E910569F138F4803E9105B1F0823EF6
:10087000910509F10895863E9105A9F1873E9105FC
:10088000B9F1843E910509F064C023C020916B0248
:1008900020FD4FC021FD4DC0089580916B0280FD69
:1008A00044C080916C0280FF44C080916B0284FD43
:1008B00042C083EE4DC080916B0282FF38C0F5CFFD
:1008C00080916B0282FD33C080916C0280FD31C04B
:1008D000ECCF80916C0281FF32C080916B0284FD6D
:1008E0002AC087EE35C080916B0283FF26C0F5CF0A
:1008F00080916B0283FD21C080916C0281FD1FC03D
:10090000ECCF80916B0285FD1CC01DC080916B02F5
:1009100085FD19C016C080916B0286FD16C017C0F8
:1009200080916B0286FD13C010C089E311C082EE76
:100930000FC080EE0DC080E00BC086EE09C084EED3
:1009400007C089E205C085E303C08AE201C081E3F4
:1009500090E0089590916B0292FF0DC0282F2871AE
:10096000283019F4877F846006C0282F2471243032
:1009700011F48B7F886093FF0DC0282F28712831D8
:1009800019F4877E846106C0282F2471243111F464
:100990008B7E886120916C0220FF0DC0382F38714A
:1009A000383019F4877F816006C0382F31713130BB
:1009B00011F48E7F886021FF0DC0282F2871283107
:1009C00019F4877E816106C0282F2171213111F42D
:1009D0008E7E886194FD877E0895E82FF0E0E75AC7
:1009E000FD4F80810895089580EA8A95F1F7089572
:1009F00008950C94F8040C94F9040C94F8040895E8
:100A0000CF93DF930E947C068091000180910001CA
:100A1000811102C095E001C090E09093640285E0EE
:100A2000891B80936302A5E5B1E04AE551E061E0EE
:100A300070E08D91E82FE295EF70F0E021A18F70CA
:100A4000EB0102C0CC0FDD1F8A95E2F7CE019C2F8F
:100A50009095922391A392A1892B82A34A175B07B9
:100A600041F7AFE4B1E045E551E061E070E08D9120
:100A7000E82FE295EF70F0E021A18F70EB0102C04A
:100A8000CC0FDD1F8A95E2F7CE019C2F9095922323
:100A900091A392A1892B82A34A175B0741F7EFE448
:100AA000F2E0A9E5B2E089E592E011921D928E177D
:100AB0009F07D9F785E00E9426060E947302DF9106
:100AC000CF910C9486060E945D06882309F18091DF
:100AD000630290E0875A9D4F0E949906811114C0CD
:100AE00080919A018F5F80939A01863078F0E0912F
:100AF0006302F0E0E75AFD4F80E090E0119201962A
:100B000085309105D9F702C010929A010C947B02AE
:100B10008091640290E0875A9D4F0E94B4060C9425
:100B2000FF043F924F925F926F927F928F929F92BB
:100B3000AF92BF92CF92DF92EF92FF920F931F93EB
:100B4000CF93DF9385E5882E81E0982E0FE412E0A5
:100B500094E5692E92E0792E512CCC24C394D12CAB
:100B60005801D8013C901C92F40181914F01C82F8B
:100B7000C295CF70D0E099A18F70760101C0EE0CC4
:100B80008A95EAF7892F8E2989A38AA14E2C409451
:100B900084218AA30E94F404EFE4F1E020E030E035
:100BA0009191A92FA295AF70B0E090964C91D80189
:100BB0006C9150E09F7002C0559547959A95E2F769
:100BC00040FD08C09C2D022E01C0990F0A94EAF73F
:100BD000892F01C080E0862BD8018C932F5F3F4F77
:100BE00026303105E9F689A1482249A28AA1E82ADE
:100BF000EAA20F5F1F4F81E0F5019081931101C0C0
:100C000080E0582A6016710609F0AACF609164024C
:100C100070E0675A7D4F252D45E08FE492E00E94F9
:100C200027060E946305852DDF91CF911F910F91BB
:100C3000FF90EF90DF90CF90BF90AF909F908F90FC
:100C40007F906F905F904F903F9008950895FF922E
:100C50000F931F93CF93DF938C01F62ED72FC42FC2
:100C6000222349F081E080939D010E9450179093C8
:100C70009C0180939B0180919D018823C1F080910C
:100C80009B0190919C010E945C17069780F0EF2DCC
:100C9000FD2FD8014C2F50E0CD01801B910B841704
:100CA00095071CF48D918193F7CF10929D01DF91F0
:100CB000CF911F910F91FF90089580919E01811116
:100CC00012C08091D80080618093D8008AE18A9513
:100CD000F1F700C08091D90080FD02C082E001C020
:100CE00081E080939E0181E090919E01913009F016
:100CF00080E008950C945D060E947A0680930001BE
:100D00000E945D0681110C948D0608950E945D0677
:100D1000811102C00C949306089561E070E081E0B7
:100D200091E00C942F0961E070E081E091E00C9477
:100D30003609CF93DF93D82FC92F0E94CE09892B74
:100D400079F4ED2FFC2F80E090E0DC01A056BE4F3F
:100D50002C912193019685309105B9F781E001C06E
:100D600080E0DF91CF91089520E030E0FC014191D7
:100D7000CF01F901E056FE4F40832F5F3F4F2530F2
:100D80003105A1F708950F931F93CF93DF93C62FDB
:100D9000D42F122FFC0182818823C9F06093A70110
:100DA0000E9450179093A6018093A50180E28C0FBA
:100DB000883008F057C0C77081E001C0880FCA951D
:100DC000EAF7DF91CF911F910F910C94850C8091E0
:100DD000A701681330C08091A5019091A6010E94DF
:100DE0005C17883C910538F500E20D0FCD17B9F07E
:100DF00080E28C0F883040F4C77081E001C0880F1A
:100E0000CA95EAF70E948C0C083028F581E09D2FE6
:100E1000977001C0880F9A95EAF70E94850C812F80
:100E20000E94720C0830F0F4D77081E001C0880F86
:100E3000DA95EAF70AC080E28C0F883098F4C77020
:100E400081E001C0880FCA95EAF7DF91CF911F9129
:100E50000F910C948C0C812FDF91CF911F910F91EA
:100E60000C94720CDF91CF911F910F9108959C010A
:100E7000CB01233F4CE53407F9F078F4283DFCE53D
:100E80003F07B9F0293D4CE5340711F1273D3C45BA
:100E900031F526E241EE61EE1EC0253FFCE53F073D
:100EA00099F070F0263F3C45D1F427E245EE66EE1E
:100EB00012C027E245EE0EC026E241EE60EE0BC006
:100EC00027E245EE64EE07C026E241EE62EE03C083
:100ED00028E241E065EE0E94C30680E00895FC012F
:100EE0008281882319F01092A701089581E0089566
:100EF000CF93DF93EC01FB018281882309F41FC1AA
:100F0000C230FCE5DF0708F41BC1C6319CE5D907F8
:100F100038F09E012A5F3C452930310508F010C1A8
:100F20000E94E61590936C0280936B02C031ECE551
:100F3000DE0709F4C3C008F041C0C8308CE5D8070B
:100F400009F49AC0F0F4C430ECE5DE0709F487C078
:100F500068F4C2308CE5D80709F477C0C330DC45AB
:100F600009F0E3C080916B02826076C0C630ECE588
:100F7000DE0709F46EC008F07BC080916B028860C8
:100F80006BC0CC308CE5D80709F485C068F4CA3052
:100F9000ECE5DE0709F474C008F079C00E943D0F4B
:100FA00080916B02806858C0CE308CE5D80709F478
:100FB00076C008F07FC080916B028BC0CB3FECE520
:100FC000DE0709F44FC018F5C3318CE5D80709F4E2
:100FD0007DC078F4C131ECE5DE0709F473C0C2319D
:100FE000DC4509F0A2C00E943D0F80916B028F7713
:100FF00033C0C5318CE5D80709F472C008F486C047
:10100000CA3FDC4509F091C080916C023EC0CF3FE1
:10101000FCE5DF0709F45FC058F4CD3F9CE5D90734
:1010200009F444C008F43FC080916C0282602DC076
:10103000C130FDE5DF0709F475C008F45DC0C230BA
:10104000DD4509F072C080E06EC080916B02816066
:1010500003C080916B02806180936B0266C08091B7
:101060006B0211C080916C02826080936C025DC043
:1010700080916B028062F0CF80916B028064ECCF34
:1010800080916B0288608460E7CF8160EECF8091B1
:101090006B028E7FE1CF80916B028D7FDDCF8091DF
:1010A0006B02877FD9CF80916C0218C080916C024F
:1010B0008D7FDBCF80916B028F7ECECF80916B02D4
:1010C0008F7DCACF80916B028F7BC6CF80916B02E0
:1010D000877F8B7FC1CF80916C028D7F8E7FC5CF44
:1010E00080916B0282FB222720F991E0922790FBEE
:1010F00082F990FB83F9B0CF80916C02982F909584
:1011000091708E7F892B90FB81F9AFCF0E943D0FAC
:1011100080916B0287FB222720F991E0922790FBB8
:1011200087F99ACF81E00E94751680916B029091A9
:101130006C020E94F7150E943D0F80E001C081E023
:10114000DF91CF910895CF93DF9386319C4541F590
:10115000EB010E942215982F8A812091090130917C
:101160000A01882379F09A7A81E009F480E080937B
:10117000A801911102C069E201C065E3C9010E94A2
:10118000BC160AC08091A801811102C069E201C0A9
:1011900065E3C9010E94BE160E94701580E001C07F
:1011A00081E0DF91CF9108958EE1489B02C081508C
:1011B000E1F7489BFECF0895589880E28A95F1F7B1
:1011C000589A0895FC012AE02A95F1F728E090E06A
:1011D00080E031E040E14A95F1F7880F489B02C07A
:1011E0008160932700C0000040E14A95F1F721504B
:1011F00089F720E12A95F1F729B100C0000030E11C
:101200003A95F1F7217092272081920F90830895EB
:10121000EF92FF920F931F93CF93DF931F92CDB75F
:10122000DEB719828C017C01E60EF11C0E151F053C
:1012300051F00E94D408CE0101960E94E208F80104
:1012400081938F01F3CF81E09981911180E00F901C
:10125000DF91CF911F910F91FF90EF9008959093A0
:10126000AA018093A901509A589A08959093AA01CF
:101270008093A9015098589AE89AE9E6F0E08081B5
:101280008C7F80830895615091E001C0990F6A9529
:10129000EAF720E031E0992361F0492F482319F063
:1012A000589A232701C0589840E24A95F1F796953D
:1012B000F2CF222311F0589A01C0589880E28A9503
:1012C000F1F758980895FF920F931F93CF93DF93F0
:1012D000EC018C01060F111DC017D10741F0F990E8
:1012E0000E94DC0868E08F2D0E944309F5CFDF9152
:1012F000CF911F910F91FF9008951F920F920FB6FB
:101300000F9211242F933F934F935F936F937F938B
:101310008F939F93AF93BF93CF93DF93EF93FF93FD
:101320005898509AC091A901D091AA016D81662365
:1013300021F08E819F810E9463090E94DC0880E178
:101340008A95F1F758985098589A80E18A95F1F764
:101350006A81662351F08B819C810E940809E88193
:10136000F981811104C082E003C0E881F98188E03D
:1013700080830E94D408FF91EF91DF91CF91BF91BC
:10138000AF919F918F917F916F915F914F913F911D
:101390002F910F900FBE0F901F901895CF93DF9352
:1013A000C091A901D091AA01F894509A589885E06B
:1013B0008A95F1F700005098589A80E28A95F1F7E3
:1013C000489B0AC0509A589AE881F98181E080834D
:1013D000789481E090E02CC06D81662381F08E814D
:1013E0009F810E94080981110AC0509A589AE88189
:1013F000F98182E08083789482E090E019C00E94B5
:10140000D40880E28A95F1F75898509A80E18A953D
:10141000F1F76A81662321F08B819C810E94630928
:101420000E94DC08E881F9811082789480E090E0E5
:10143000DF91CF9108959093B0018093AF0108950B
:10144000E091AF01F091B001309721F00190F0816F
:10145000E02D099480E00895E091AF01F091B00192
:10146000309721F00280F381E02D09940895E091F6
:10147000AF01F091B001309739F022E0DC012C93FC
:101480000480F581E02D099408952091AD013091FB
:10149000AE012817390771F09093AE018093AD012A
:1014A000E091AF01F091B001309721F00680F78113
:1014B000E02D099408952091AB013091AC012817DB
:1014C000390771F09093AC018093AB01E091AF01CB
:1014D000F091B001309721F00084F185E02D09945E
:1014E000089585B7806885BF85B7806885BF0895F2
:1014F00008950C94780A0C94790A0C94780A0C9448
:10150000780A0E94710A0E947D0A0C947B0A0E944C
:1015100047170E9400050E94BD170C947F0AAF92E6
:10152000BF92CF92DF92EF92FF920F931F93CF93D0
:10153000DF93CDB7DEB72A970FB6F894DEBF0FBEA4
:10154000CDBF0E9491050E945D06811111C08FEFF1
:1015500089838A831B820E9450178160782F9D8324
:101560008C8349815A816B818D810E94270B40C0F9
:1015700082EBA82E81E0B82E00E010E0C02E802F74
:101580000E94ED04E82EF501D1905F01D82631F4D8
:101590000F5F1F4F0A30110589F7D9CF80913202B2
:1015A00081FD0E94F30480E0FF24F3949D2D9F2190
:1015B000D1F08E83CF82EF2081E009F480E088872C
:1015C0000E9450178160782F9A8789874E815F81AA
:1015D00068858A850E94270BF801EE54FE4F8081B2
:1015E000F826F08205C08F5FFF0C8630F9F6D0CF69
:1015F0000E944F190E94200A9091B1018917B1F001
:101600000E94200A8093B1012A960FB6F894DEBF9B
:101610000FBECDBFDF91CF911F910F91FF90EF9043
:10162000DF90CF90BF90AF900C9484022A960FB6B3
:10163000F894DEBF0FBECDBFDF91CF911F910F9108
:10164000FF90EF90DF90CF90BF90AF900895CF9331
:10165000DF93CDB7DEB72B970FB6F894DEBF0FBE82
:10166000CDBF4F83588769877A878B87DE011196B4
:1016700086E0FD0111928A95E9F785E0FE01379633
:1016800001900D928A95E1F749815A816B817C81A5
:101690008D819E810E940D122B960FB6F894DEBFAD
:1016A0000FBECDBFDF91CF910895FC018081918164
:1016B0000E94E3140895CF93882309F4A9C0C82F8A
:1016C0008238C1F40E94200A81FDA2C069E38091A2
:1016D000090190910A010E94BC160E9470152FEF1B
:1016E00081EE94E0215080409040E1F700C000007E
:1016F00069E319C0833801F50E94200A80FD88C083
:1017000063E58091090190910A010E94BC160E9434
:1017100070152FEF81EE94E0215080409040E1F76A
:1017200000C0000063E58091090190910A010E94C8
:10173000BE16CF910C9470158438C1F40E94200A13
:1017400082FD66C067E48091090190910A010E94C0
:10175000BC160E9470152FEF81EE94E0215080405E
:101760009040E1F700C0000067E4DDCF8CEF8C0F04
:10177000813AF8F48C2F0E94031C811149C06C2F10
:101780008091090190910A010E948616882349F0F0
:101790006C2F8091090190910A010E94BE160E944F
:1017A00070156C2F8091090190910A010E94BC165E
:1017B000C0CF80E28C0F883048F4C77081E001C050
:1017C000880FCA95EAF70E942515B3CFEBE5EC0F19
:1017D000E33040F4F0E0E357FE4F808190E0CF919A
:1017E0000C94450AE8E5EC0FE73150F4F0E0EE0F19
:1017F000FF1FE15AFE4F80819181CF910C945B0ACB
:10180000C03F30F08C2F0E945718CF910C94441990
:10181000CF910895882309F464C0823879F40E9436
:10182000200A81FF5EC069E38091090190910A015D
:101830000E94BC160E94701569E310C08338B1F491
:101840000E94200A80FF4DC063E5809109019091BC
:101850000A010E94BC160E94701563E5809109017F
:1018600090910A010E94BE160C947015843879F488
:101870000E94200A82FF35C067E48091090190919F
:101880000A010E94BC160E94701567E4E7CF9CEF26
:10189000980F913A10F4682FE1CF90E2980F9830AA
:1018A00050F4877091E001C0990F8A95EAF7892F6B
:1018B0000E942B15D9CF9BE5980F933020F480E040
:1018C00090E00C94450A98E5980F973120F480E059
:1018D00090E00C945B0A803F20F00E94BF180C94AB
:1018E00044190895CF93C82F0E945B0BC93349F464
:1018F0002FEF87EE93E0215080409040E1F700C049
:1019000000008C2FCF910C940A0C882321F00E94A8
:1019100025150C9470150895882321F00E942B152D
:101920000C9470150895CF92DF92EF92FF920F936F
:101930001F93CF93DF937C01062FC72FFC011581E6
:1019400012951F70D281D1110E9442150E941B1561
:10195000882379F0DD2369F080E2800F883048F039
:1019600082E00E94BA150E941B1591E0D82ED9265C
:1019700001C0D12CCC2EC2948FE0C8228C2D90E0D7
:10198000FC01EA5AFF4F0C9491238C2F807FCF707B
:10199000882311F0C295C07FDD2399F0CC2309F490
:1019A000C4C180E2800F883010F0011104C08C2F78
:1019B0000E94251503C08C2F0E9435150E947015BA
:1019C000B4C1802F0E940A0CCC2309F4D3C180E259
:1019D000800F883010F0011104C08C2F0E942B154D
:1019E00003C08C2F0E943B150E947015C3C18C2F21
:1019F000807FCF70803211F0C295C07F002319F034
:101A00000130C9F022C0DD2371F0112341F0113003
:101A100031F40E9455158C2B0E945D15ABC10E94BC
:101A200055158C2B1DC0112319F0113009F4A2C1DA
:101A30000E94661525C0DD2321F0163008F09AC1FA
:101A40000EC0153008F096C11BC0DD2361F01123D4
:101A500031F0F701858180FF68C18F7085838C2FFD
:101A60000E94850C87C1112359F0093309F06EC11A
:101A7000FFEF27EE83E0F15020408040E1F764C1A2
:101A80008C2F0E948C0C76C18C2F86958695837046
:101A900019F0813061F06EC1DD2321F0802F9C2F81
:101AA000937002C080E090E00E94450A6BC1DD2384
:101AB00021F0802F9C2F937002C080E090E00E9464
:101AC0005B0A60C1DD23F9F0053F51F0063F71F07C
:101AD000043FA9F4809165029091660281600BC079
:101AE0008091650290916602826005C080916502D6
:101AF0009091660284609093660280936502802FC5
:101B00000E9457181EC0053F51F0063F71F0043F78
:101B1000A9F480916502909166028E7F0BC080913E
:101B20006502909166028D7F05C08091650290915B
:101B300066028B7F9093660280936502802F0E94DD
:101B4000BF180E9444191EC18C2F837009F045C034
:101B5000D11114C1402F429546954770440F440F50
:101B6000602F6F70862F90E0A0E0B0E0042E04C0DC
:101B7000880F991FAA1FBB1F0A94D2F704FF10C039
:101B80000FE010E020E030E004C0000F111F221F22
:101B9000331F4A95D2F7009510952095309503C0D4
:101BA00000E010E09801C695C695C370BC01CD0158
:101BB000602B712B822B932BC23049F058F4C1302B
:101BC00019F00E945E13DAC00E944C13D7C00E9425
:101BD0007013D4C00E944A13D1C0DD2319F08C2F9A
:101BE000817001C08695882309F4C8C0402F4295B2
:101BF00046954770440F440F602F6F70862F90E01A
:101C0000A0E0B0E0042E04C0880F991FAA1FBB1FDC
:101C10000A94D2F704FF10C00FE010E020E030E09B
:101C200004C0000F111F221F331F4A95D2F70095E1
:101C300010952095309503C000E010E09801C695FE
:101C4000C695C370BC01CD01602B712B822B932BE9
:101C5000C23049F058F4C13019F00E9423148EC0EC
:101C60000E9411148BC00E94351488C00E948413F6
:101C700085C0CF70DD2339F08C2F0E94AA13802FEE
:101C80000E94850C7BC0802F0E948C0C8C2F0E94A0
:101C9000CB1374C0023F01F128F4003F41F0013F33
:101CA000A1F03FC0033FF9F0043F39F13AC0DD2312
:101CB00041F0153008F05EC08C2F8F710E94F01338
:101CC00059C0163008F056C0F7CFDD2339F08C2FFD
:101CD0008F710E94AA134EC0DD23C9F38C2F8F7120
:101CE0000E94CB1347C0DD2329F08C2F8F710E94F7
:101CF000951340C00E9490133DC0DD2349F0CF7181
:101D00008C2F0E94AA1363E08C2F0E94A51532C06D
:101D100081E00E94BA15123068F182E00E94BA1583
:101D200029C0DD2331F0112391F2802F0E945B0B3B
:101D300021C0112399F2093349F49FEFE7EEF3E054
:101D40009150E040F040E1F700C00000802F0E9479
:101D50000A0C10C04C2F4F70602FC7010E94DF0289
:101D60000E94BB120FC04C2F4F70602FC7010E9402
:101D7000E20208C088EF8C0D843020F40E94200A13
:101D80000E948402DD20C9F00E94171580FD15C055
:101D9000F70112820E9411150E94AA13C7010E9426
:101DA000FE0E0E941115DF91CF911F910F91FF90B0
:101DB000EF90DF90CF900C94CB13DF91CF911F91D8
:101DC0000F91FF90EF90DF90CF9008950F931F93A6
:101DD000CF93DF93EC01688179818A810E94EE14B0
:101DE0008C010E9447140E943813B801CE010E9452
:101DF000930CDF91CF911F910F910895CF93DF93B3
:101E0000FC019081818123813481232B31F08F3F2C
:101E100031F481E09F3F19F403C081E001C080E00C
:101E200080FD0EC0EF01CF010E94A302882341F084
:101E3000CE010E94E60ECE01DF91CF910C94690293
:101E4000DF91CF9108950E9442150E9452150E9481
:101E500070150E946E1A0E94441980E090E00E9462
:101E6000450A80E090E00C945B0A80910901909112
:101E70000A010E94C0160C94230F0E9432150C9484
:101E8000350FE92FE295EF704E2F50E0FA013297AF
:101E9000EE30F105B0F4EA59FF4F0C949123803FE6
:101EA00091F018F4883E68F40EC0843F51F40BC0E2
:101EB000883E48F0813F29F406C093FB882780F9CB
:101EC000089580E0089581E008950E94E3140E943F
:101ED000410F0895CF93DF9300D000D01F92CDB76C
:101EE000DEB70F900F900F900F900F90DF91CF9172
:101EF0000895CF93DF9300D000D000D0CDB7DEB7E8
:101F000026960FB6F894DEBF0FBECDBFDF91CF91FE
:101F100008951F93CF93DF93C091BD0116E0809188
:101F2000BE01C81799F0D0E01C9FF0011D9FF00D75
:101F30001124E154FE4F408151816281738184817B
:101F400095810E94790F2196C770E9CFDF91CF91DB
:101F50001F9108954091EF015091F0016091F101BE
:101F60007091F2018091F3019091F4010C94790F3A
:101F7000CF938091F40182958F7009F05FC08091BA
:101F8000F101882309F45AC08091BD01B091BE01CE
:101F90007091EF01A091F0014091F2015091F30195
:101FA00091E07F3F09F090E0692FC6E08B1709F4BC
:101FB00045C04115510521F0AF3F21F020E003C09D
:101FC00021E001C0262F90E020FD35C0C89FF00120
:101FD000C99FF00D1124E154FE4F21812A132BC01B
:101FE0002081271328C02281211125C0238134811B
:101FF0002417350710F421503109241B350B283CD8
:102000003105C8F42091F4012F7020612093F40170
:1020100026E0289FF001299FF00D1124EC53FE4F7C
:1020200080818F70806180838FEE91E00E94FE0E30
:10203000CF910C94890F01968770B8CFCF910895F6
:10204000AF92BF92CF92DF92EF92FF920F931F93C6
:10205000CF93DF93CDB7DEB761970FB6F894DEBFAD
:102060000FBECDBF8C0185E0F801DE011D96019009
:102070000D928A95E1F7D8014C9111965C911197D8
:102080001296EC903091EF016091F0018091F20195
:102090009091F301009731F06F3F31F421E03F3F21
:1020A00019F403C021E001C020E0B22FB170BB2EB3
:1020B00020FD60C1F801C380D480A090F101AA2066
:1020C00009F4EEC02091F401C816D90628F0D60113
:1020D000A81BB90BCD0104C0809590958C0D9D1D5A
:1020E000FF24F394883C910580F0F12C207F09F0C7
:1020F0009CC07C2DD98AC88A6E2D89890E946A0F5E
:102100008FEE91E00E94FE0E2DC1822F807F09F09C
:1021100054C0561314C0431312C0FE2CE1100FC05C
:102120002F7020612093F4010E94AA0F8FEE91E09E
:102130000E94FE0E8091F401F80185835CC1CD28D8
:1021400031F05F3F31F481E04F3F19F403C081E08B
:1021500001C080E080FD03C081E08E2502C080E0E8
:1021600090E0F82FF170FF2E80FF1CC08091BD0120
:102170002091BE0136E0821709F41AC190E0389F21
:10218000F001399FF00D1124E154FE4F6181561387
:1021900006C06081461303C06281E61203C0019647
:1021A0008770E9CFFE2CEE2009F425C18091F4015F
:1021B00081608093F401F12C1EC1561309C04313B2
:1021C00007C0E11005C08091F401F8018583A4C027
:1021D0004D875E878D859E850E94650F882379F1E6
:1021E000EE2069F12091F401822F82958F7090E0AA
:1021F000029774F08091EF019091F00198878F839E
:102200001986DB86CA862C87CE0107960E94FE0EB1
:1022100086E0F801AFEEB1E001900D928A95E1F70A
:102220000E94B80F0E94AA0F0DC0561771F04D877B
:102230005E878D859E850E94650F81111AC0C80139
:102240000E94FE0EFF24F394D6C04313F0CFE1109A
:10225000EECF8091F401F8018583C8010E94FE0E43
:1022600086E0EFEEF1E0DF011D928A95E9F7FA2CA6
:10227000C2C0EE2021F32091F401822F82958F704D
:1022800090E002972CF28091EF019091F0019A83F7
:1022900089831B82DD82CC822E83CE010196B6CF4C
:1022A000C816D90628F0F601E81BF90BCF0104C0C7
:1022B000809590958C0D9D1D883C910548F0F12CE2
:1022C0007C2DD98AC88A6E2D89890E946A0F4AC0DE
:1022D000FE2CEE2009F4B3CF561333C0431331C0A4
:1022E0002091F40120FD24C0822F82958F70482F09
:1022F00050E041155105E1F0D80115962C93159742
:102300004F30510549F08F5F982F9295907F822F23
:102310008F70892B15968C93C8010E94FE0E86E063
:10232000F801AFEEB1E001900D928A95E1F73DC062
:1023300086E0F801AFEEB1E001900D928A95E1F7E9
:102340005AC04D875E878D859E850E94650F8111DD
:102350005FCF8091F40181608093F401C8010E94F5
:10236000FE0E49C0EFEEF1E086E0DF011D928A9596
:10237000E9F71BC0EE2009F462CF4D875E878D859B
:102380009E850E94650FF82E882309F458CF86E0B9
:10239000F801AFEEB1E001900D928A95E1F78FEE72
:1023A00091E00E94550B0E94B80F0E94AA0F23C013
:1023B0004D875E878D859E850E94E314292F229587
:1023C0002F70223028F49F7039F0811105C00BC0A6
:1023D000243028F49F7049F4805E883020F0C801D2
:1023E0000E94FE0EBF2CFB2C06C0D80115969C91B6
:1023F000907F91F7F8CF8F2D61960FB6F894DEBFDE
:102400000FBECDBFDF91CF911F910F91FF90EF9045
:10241000DF90CF90BF90AF9008951F93CF93DF933D
:10242000CDB7DEB72C970FB6F894DEBF0FBECDBF89
:102430004F83588769877A878B879C87CE01079659
:102440000E9420108823D1F09F8188852A853B85B2
:10245000232B31F08F3F31F481E09F3F19F403C00B
:1024600081E001C080E080FD47C04F8158856985CB
:102470007A858B859C850E94790F3EC086E0FE019F
:102480003796DE01119601900D928A95E1F7FF8152
:10249000E8856A857B856115710531F0EF3F31F480
:1024A00081E0FF3F19F403C081E001C080E080FDBE
:1024B00023C02091BE0130E0C901019687709927A1
:1024C0004091BD0150E084179507F1F1F983EA834B
:1024D0007D836C8396E0929FD001939FB00D112471
:1024E000A154BE4FFE01319601900D929A95E1F7ED
:1024F0008093BE010E94890F16E08091BD019091EA
:10250000BE01891771F1189FC001112481549E4F9B
:102510000E942010882329F1E091BD011E9FF00147
:102520001124E154FE4F4081518162817381848185
:1025300095810E94790F8091BD0190E0019687708E
:1025400099278093BD01D9CF0E943D0F1092BE0103
:102550001092BD01EFEEF1E086E0DF011D928A9559
:10256000E9F72C960FB6F894DEBF0FBECDBFDF9112
:10257000CF911F910895EF92FF920F931F93CF93E6
:10258000DF938C01892B09F46CC0F12CEE24E394C9
:10259000E8012196F8018491843740F4843008F0F2
:1025A00051C0813081F0823019F15BC0853709F468
:1025B00044C0A8F19CE7980F903708F052C08F777D
:1025C0000E940A0C41C00E5F1F4FFE01849190E2F1
:1025D000980F983050F48770FE2D01C0FF0F8A9538
:1025E000EAF78F2F0E94451514C00E945B0B2DC087
:1025F0000E5F1F4FFE01849190E2980F983060F4B7
:102600008770FE2D01C0FF0F8A95EAF78F2F0E9479
:102610004B150E94701519C00E940A0C16C00E5F5F
:102620001F4FFE01C491CC2381F08FE99FE00197F9
:10263000F1F700C00000C150F6CF0E5F1F4FFE0142
:10264000F49003C00E945B0B8E018F2D882309F448
:102650009FCFEFE9FFE03197F1F700C00000815014
:10266000F5CFDF91CF911F910F91FF90EF900895DB
:10267000089508950C9439130C943A130E943C1356
:10268000609321027093220280932302909324028C
:102690000C94230F0C943E130F931F93009121026F
:1026A000109122022091230230912402602B712B81
:1026B000822B932B1F910F910C943E130F931F931A
:1026C00000912102109122022091230230912402D4
:1026D00060237123822393231F910F910C943E1347
:1026E0000F931F9300912102109122022091230247
:1026F0003091240260277127822793271F910F9121
:102700000C943E130C9439130E94821360931D02A3
:1027100070931E0280931F02909320020C94230F4B
:1027200060E070E0CB010C9484130F931F9341E0A1
:1027300050E060E070E08A019B0104C0000F111FAF
:10274000221F331F8A95D2F7C901B8011F910F913B
:102750000C9484130F931F9341E050E060E070E00D
:1027600004C0440F551F661F771F8A95D2F78091CA
:102770001D0290911E02A0911F02B09120028A01B9
:102780009B01082B192B2A2B3B2BC901B8011F9148
:102790000F910C9484130F931F9341E050E060E07D
:1027A00070E004C0440F551F661F771F8A95D2F74B
:1027B000409550956095709580911D0290911E02F4
:1027C000A0911F02B09120028A019B0108231923C6
:1027D0002A233B23C901B8011F910F910C94841344
:1027E0000F931F9341E050E060E070E004C0440F9D
:1027F000551F661F771F8A95D2F780911D02909111
:102800001E02A0911F02B09120028A019B0108279D
:1028100019272A273B27C901B8011F910F910C9452
:1028200084130F931F9300911D0210911E0220919B
:102830001F0230912002602B712B822B932B1F9152
:102840000F910C9484130F931F9300911D0210910C
:102850001E0220911F0230912002602371238223E7
:1028600093231F910F910C9484130F931F93009146
:102870001D0210911E0220911F023091200260273C
:102880007127822793271F910F910C948413089529
:10289000292F220F920F990F890FE82FE695E695C1
:1028A000E695877051E001C0550F8A95EAF785E0FB
:1028B000E89FF0011124EB50FE4F20E030E070E083
:1028C0004081CB01022E02C0969587950A94E2F7CB
:1028D0008170819584278523842781932F5F3F4FC3
:1028E0002530310569F70895292F220F920F990F8E
:1028F000890F682F669566956695982F977085E085
:10290000689FB001112440E050E080E0FB01E40F3B
:10291000F51FEB50FE4F208130E0092E02C03695A6
:1029200027950A94E2F721703327042E01C0220F65
:102930000A94EAF7822B4F5F5F4F4530510531F71C
:102940000895BF92CF92DF92EF92FF920F931F9361
:10295000CF93DF938C01C0901D02D0901E02E090B7
:102960001F02F09020028091210290912202A091FA
:102970002302B0912402C82AD92AEA2AFB2ACFE1ED
:10298000D0E0D701C6010C2E04C0B695A795979547
:1029900087950A94D2F780FD04C0219790F7B12C57
:1029A00007C0BC2EB8018C2F0E94FE020197A9F32C
:1029B0008B2DDF91CF911F910F91FF90EF90DF90C2
:1029C000CF90BF900895CF93DF93EC010E94A114A4
:1029D000BE010E94FE02DF91CF9108951F93CF9315
:1029E000DF93EB019091BC01992321F0CB010E9470
:1029F000E31413C0882349F0CB010E94A114182FBF
:102A0000682FCE010E94481404C0CB010E947414A8
:102A1000182FBE01812F0E94FE02DF91CF911F91DE
:102A200008958091250285958595859508958091D5
:102A300025028770089590912502977081E009F42E
:102A400080E0089580913102089590913102892BA0
:102A5000809331020895809590913102892380936B
:102A60003102089510923102089590913002892B1D
:102A7000809330020895809590913002892380934D
:102A80003002089510923002089590912F02892B00
:102A900080932F020895809590912F02892380932F
:102AA0002F02089510922F02089580912602089512
:102AB00008950C9458150C94591590912602981766
:102AC00021F0809326020C945B15089580912602D4
:102AD000882329F01092260280E00C945B1508955B
:102AE000E0910901F0910A01809131028083E09127
:102AF0000901F0910A01908180913002892B808335
:102B0000E0910901F0910A01908180912F02892BB7
:102B1000808380912602882381F0E0910901F09161
:102B20000A019081892B80838091090190910A018B
:102B30000E947A1681110E94661580910901909178
:102B40000A010C942C0A0C94581598E0899F900166
:102B50001124262B209325020E94AA13809125027E
:102B60008595859585950C94A3151092250280E096
:102B70000C94A31520912502809582238093250231
:102B8000982F977079F430E0482F082E000C550BE1
:102B90002417350739F08595859585950E94CB13C7
:102BA0000C94B515089580E090E00E94B32321E0D5
:102BB0008C3E9E4F09F020E0822F089582E090E045
:102BC0000C94AB2383E090E00C94AB23CF9384E090
:102BD00090E00E94AB23C82F81E290E00E94AB23DB
:102BE0002C2F30E0A901582BCA01CF910895CF9323
:102BF000C92F682F84E090E00E94B9236C2F81E2F6
:102C000090E0CF910C94B923AB01BC018FE090E030
:102C10000C94CB23AB01BC0183E190E00C94CB235B
:102C200060E070E0CB010C940A1660E070E0CB012C
:102C30000E9404160C9410166CEE7EEF80E090E07B
:102C40000E94D72360E082E090E00E94B92360E018
:102C500083E090E00E94B923109221021092220298
:102C6000109223021092240260E084E090E00E941F
:102C7000B92360E081E290E00E94B92360E085E042
:102C800090E00E94B92360E086E090E00E94B923C2
:102C90006FEF87E090E00E94B92340E050E0BA0176
:102CA00088E090E00E94CB2360E08DE090E00E94FD
:102CB000B92340E050E0BA0188E190E00E94CB23C4
:102CC00060E087E190E00E94B92340E050E0BA0163
:102CD0008CE190E00E94CB2360E080E290E00E94D3
:102CE000B9230C9415160C941C16682F8EE090E0F6
:102CF0000C94B923FC01329697E080E0915029F0C2
:102D000021912223D9F38F5FF9CF0895662349F0EB
:102D1000FC01329608962191621729F0E817F9070D
:102D2000D1F780E0089581E008959C01FC0132967E
:102D30009FEF80E04191461789F09F3F19F44111C0
:102D400001C0982F8F5F8630A9F79F3F39F0F901B6
:102D5000E90FF11D97FDFA956283089508959C018E
:102D60002A5F3F4FFC014281461301C01282019647
:102D700082179307B9F708950C9495160C94AF1623
:102D8000029626E0FC0111922A95E9F7089508952C
:102D90000C94C7160C94C716CF930E94CA160E94B3
:102DA00091050E94C816C0E08C2F0E94ED0481118D
:102DB00004C0CF5FCA30C1F701C081E0CF91089550
:102DC0000C94C7160C94E0160E94E21680917102D2
:102DD000843049F11092330220E488E190E00FB68C
:102DE000F894A895809360000FBE2093600080E067
:102DF0000E9484020E94E21683B7817F846083BFB1
:102E000083B7816083BF7894889583B78E7F83BFB3
:102E10000FB6F894A8958091600088618093600057
:102E2000109260000FBE08950C94C7160E943D0FCB
:102E30000E94200A0E9484020C9414171F920F9281
:102E40000FB60F9211248F939F93AF93BF938091EE
:102E50003302811113C08091670290916802A091A2
:102E60006902B0916A024196A11DB11D809367026B
:102E700090936802A0936902B0936A02BF91AF91E8
:102E80009F918F910F900FBE0F901F90189582E029
:102E900084BD93E095BD9AEF97BD80936E00089531
:102EA0002FB7F8948091670290916802A09169020F
:102EB000B0916A022FBF0895CF92DF92EF92FF92F6
:102EC0000F931F932FB7F8944091670250916802B7
:102ED0006091690270916A022FBF6A017B01EE2442
:102EE000FF248C0120E030E0C016D106E206F30694
:102EF00010F4415051099A01281B390BC9011F9147
:102F00000F91FF90EF90DF90CF90089578941F92EB
:102F10000F920FB60F9211248F939F93AF93BF938D
:102F20008091670290916802A0916902B0916A0253
:102F30000196A11DB11D8093670290936802A09332
:102F40006902B0936A02BF91AF919F918F910F90E8
:102F50000FBE0F901F90189587E797E79093010891
:102F6000809300089AE088E10FB6F894A8958093C2
:102F700060000FBE90936000FFCF0E94D3158111B7
:102F800002C00E9473160E94DE15809332020E94D6
:102F9000E61590936C0280936B020E94E215682FF5
:102FA00070E080E090E00C944A1380913B0280FF37
:102FB0000BC06091100185E0689FB00111247595E8
:102FC0006795759567952BC081FF09C060911001C9
:102FD00085E0689FB00111247595679520C082FF38
:102FE00007C06091100185E0689FB001112417C0EF
:102FF00090913A029923D1F060910F01961788F7CA
:103000002091100185E0289F90011124929FA0013A
:10301000939F500D112470E0CA010E947D236038F7
:10302000710540F46115710519F406C065E070E0A2
:10303000862F08958FE7089581E0089580913B02DF
:1030400080FF08C060910C0170E0759567957595DB
:10305000679521C081FF06C060910C0170E07595F5
:10306000679519C082FF04C060910C0170E010C028
:1030700090913A02992399F060910B019617A0F76D
:1030800080910C01899FC001112470E00E947D2372
:103090006038710540F46115710519F406C061E0EE
:1030A00070E0862F08958FE7089581E00895803FAE
:1030B00021F40E94D517819504C0813F29F40E9414
:1030C000D51780933F020895823F21F40E94D517BF
:1030D000819504C0833F29F40E94D51780933E0256
:1030E0000895893F19F40E941E1805C08A3F31F4E3
:1030F0000E941E1881958093400208958B3F21F411
:103100000E941E18819504C08C3F29F40E941E184D
:10311000809341020895843F21F480913D028160B3
:1031200017C0853F21F480913D02826011C0863F27
:1031300021F480913D0284600BC0873F21F480918F
:103140003D02886005C0883F31F480913D02806176
:1031500080933D0208958D3F21F480913B02816070
:103160000BC08E3F21F480913B02826005C08F3FEF
:1031700029F480913B02846080933B020895803F54
:1031800039F480913F0287FF6CC010923F0269C002
:10319000813F29F480913F021816BCF362C09091E0
:1031A0003E02823F29F497FF5CC010923E0259C054
:1031B000833F19F41916CCF354C0893F41F4809130
:1031C000400218160CF04DC0109240024AC08A3FCF
:1031D00029F48091400287FF44C0F6CF8B3F39F439
:1031E0008091410287FF3DC0109241023AC08C3F5E
:1031F00029F4809141021816BCF333C0843F21F4B6
:1032000080913D028E7F17C0853F21F480913D0261
:103210008D7F11C0863F21F480913D028B7F0BC0D2
:10322000873F21F480913D02877F05C0883F31F4BC
:1032300080913D028F7E80933D0213C08D3F21F42B
:1032400080913B028E7F0BC08E3F21F480913B0228
:103250008D7F05C08F3F29F480913B028B7F809347
:103260003B0280913E0281110EC080913F0281118C
:103270000AC080914002811106C0809141028111F3
:1032800002C010923A0208958CE392E00E94370A3D
:103290000E94501790933902809338020895CF937B
:1032A000DF9300D000D000D0CDB7DEB786E0ECE3EE
:1032B000F2E0DE01119601900D928A95E1F780917E
:1032C0003E02811105C080913F02882309F47AC033
:1032D00080913602909137020E945C17AC01909168
:1032E0003A02992339F02091110130E02417350773
:1032F00058F068C0209112018AE0289F90011124A3
:103300002417350718F05EC09F3F19F09F5F909318
:103310003A02109240021092410280913E02181629
:1033200024F40E94D51780933E0280913E0287FFCD
:1033300005C00E94D517819580933E0280913F027F
:10334000181624F40E94D51780933F0280913F0203
:1033500087FF05C00E94D517819580933F02309169
:103360003E023323E1F020913F022223C1F045EBDE
:103370003403C0011124992319F090933E0203C035
:1033800081E080933E0235EB2303C0011124992391
:1033900019F090933F0203C081E080933F020E94A6
:1033A00044198091380290913902909337028093AA
:1033B000360286E0FE013196ACE3B2E001900D9258
:1033C0008A95E1F780914002811105C08091410208
:1033D000882309F47AC080913402909135020E94CA
:1033E0005C17AC0190913A02992339F020910D01BC
:1033F00030E02417350758F068C020910E018AE0AC
:10340000289F900111242417350718F05EC09F3FB4
:1034100019F09F5F90933A0210923E0210923F0281
:1034200080914002181624F40E941E1880934002D6
:103430008091400287FF05C00E941E1881958093ED
:10344000400280914102181624F40E941E188093B5
:1034500041028091410287FF05C00E941E1881959C
:1034600080934102309140023323E1F020914102E8
:103470002223C1F045EB3403C0011124992319F034
:103480009093400203C081E08093400235EB230318
:10349000C0011124992319F09093410203C081E0E7
:1034A000809341020E944419809138029091390220
:1034B000909335028093340286E0FE013196ACE3AE
:1034C000B2E001900D928A95E1F726960FB6F89436
:1034D000DEBF0FBECDBFDF91CF910895ECE3F2E0E8
:1034E00086E0DF011D928A95E9F710923A02109268
:1034F0003B020895833081F128F4813059F0823005
:10350000D1F00895853009F449C0B8F1863009F446
:1035100056C0089580911201262F30E0280F311DEA
:103520002F3F310524F4680F6093120108958FEF47
:1035300080931201089580911101262F30E0280F09
:10354000311D2F3F310524F4680F60931101089558
:103550008FEF80931101089580911001262F30E0A4
:10356000280F311D2F3F310524F4680F609310019F
:1035700008958FEF80931001089580910F01262FF9
:1035800030E0280F311D2F3F310524F4680F609380
:103590000F0108958FEF80930F01089580910C0122
:1035A000262F30E0280F311D2F3F310524F4680FFE
:1035B00060930C0108958FEF80930C010895809122
:1035C0000B01262F30E0280F311D2F3F310524F449
:1035D000680F60930B0108958FEF80930B0108959E
:1035E000833011F128F4813049F0823091F0089550
:1035F000853081F120F18630C1F10895809112016A
:10360000681720F4861B809312010895109212010E
:10361000089580911101681720F4861B8093110191
:10362000089510921101089580911001681720F4F7
:10363000861B8093100108951092100108958091C7
:103640000F01681720F4861B80930F0108951092D4
:103650000F01089580910C01681720F4861B809358
:103660000C01089510920C01089580910B016817C8
:1036700020F4861B80930B01089510920B0108958E
:103680000F931F9341E050E060E070E08A019B01DE
:1036900004C0000F111F221F331F8A95D2F7C901E2
:1036A000B8010E944A131F910F910C943D0F8B316A
:1036B00009F474C058F58B3009F492C078F4863060
:1036C00009F446C020F4853009F44CC08BC0873023
:1036D00009F456C0883009F483C084C0803109F4ED
:1036E00070C068F48E3009F07DC08091320282FB98
:1036F000222720F991E0922790FB82F958C0863169
:1037000009F46EC0893109F46BC06CC08A32E9F0EB
:1037100060F4873209F461C028F48E3108F462C085
:103720008D515CC08932F1F05DC0833450F48A332E
:1037300008F051C0853309F450C0883309F450C0F3
:1037400051C0833409F449C04DC00E94731648C06B
:1037500080913202817F8E7F8093320281E080935C
:10376000430208950E943D0F2FEF83ED90E3215017
:1037700080409040E1F700C000000E94AC1730C0CC
:1037800080913202982F9095917090FB80F98093F0
:103790003202911125C0897F877F10C0809132024B
:1037A00081FB222720F991E0922790FB81F98093F9
:1037B00032029923A9F08091320281608093320213
:1037C0000FC08091320283FB222720F991E09227DB
:1037D00090FB83F9ECCF895301C080E00E94401B2D
:1037E00081E0089580E0089580E008950C94F41B32
:1037F0008E518A3030F4E82FF0E0E057FE4F8081A0
:10380000089580E00895CF93C82F809143028130BE
:1038100051F018F0823099F17DC00E942215823259
:1038200009F07AC004C00E942215823261F48C2F04
:103830000E94F61B811104C08C2F0E94571B1DC0D3
:1038400081E090E01AC08C2F0E94F41B811114C0FB
:10385000C43179F048F4CB3079F0C03109F060C060
:1038600082E08093430208C0C93219F0C83321F0C6
:1038700057C01092430254C081E0817053C0C932D6
:1038800089F118F5C43171F1B0F4C73009F046C0C0
:103890008EE18093120182E3809311018AE080938C
:1038A000100184E180930F0188E080930C0188E28D
:1038B00080930B0133C082EE8C0F863078F58C2F0D
:1038C0000E94F81B8093420229C0CE34E9F020F414
:1038D000CB3421F56AE013C0C13579F0C235F1F47B
:1038E00061E00DC080914202882319F010924202DB
:1038F00015C081E08093430215C061E006C080914D
:1039000042020E947A1A0AC06AE0809142020E9432
:10391000F01A04C01092430280E004C081E002C0AB
:1039200080E0ABCFCF91089580914C020895CF9362
:10393000DF9300D01F92CDB7DEB790917102943023
:1039400019F589837B836A8382E08093E9008FEF96
:103950009091E800815095FD06C095ED9A95F1F79C
:1039600000008111F5CF8091E80085FF0DC040E097
:1039700050E063E070E0CE0101960E94DF1E80916E
:10398000E8008E778093E8000F900F900F90DF9102
:10399000CF910895CF93DF93EC010E94C21E823035
:1039A00011F0843031F4BE0184E0DF91CF910C94AA
:1039B000971CDF91CF910895BC0183E00C94971C74
:1039C000CF93DF93EC010E94C21E823011F084304D
:1039D000F9F482E08093E9008FEF9091E800815044
:1039E00095FD06C095ED9A95F1F700008111F5CF90
:1039F0008091E80085FF0CC040E050E066E070E098
:103A0000CE010E94DF1E8091E8008E778093E8004F
:103A1000DF91CF910895CF93DF93EC010E94C21EF6
:103A2000823011F0843039F581E08093E9008FEF26
:103A30009091E800815095FD06C095ED9A95F1F7BB
:103A400000008111F5CF8091E80085FF14C040E0AF
:103A500050E068E070E0CE010E94DF1E8091E80037
:103A60008E778093E80088E0FE01A4E4B2E0019044
:103A70000D928A95E1F7DF91CF91089580917002C0
:103A8000811109C00E9470200E94CD208091E20027
:103A900084608093E2000895109270020895089562
:103AA00008950C94161742E061EC81E00E94E91F32
:103AB00042E261EC82E00C94E91F80917302833052
:103AC00009F460C030F4813071F0823009F499C09B
:103AD00008958A3009F485C08B3009F46BC08930B1
:103AE00009F0A7C020C080917202813A09F0A1C0FC
:103AF0008091E800877F8093E80080917602909122
:103B00007702892B21F468E084E492E003C060E04E
:103B100080E090E070E00E942A1F8091E8008B779F
:103B20008093E800089580917202813209F081C08B
:103B30008091760290917702029708F07AC0809186
:103B4000E800877F8093E8008091E80082FD05C04F
:103B5000809171028111F8CF6CC02091F3008091A7
:103B6000F20090E0922B029729F48091F1008B7F74
:103B7000813021F48091F10080934C028091E80023
:103B80008B7753C080917202813A09F052C08091C4
:103B9000760290917702892B09F04BC08091E80062
:103BA000877F8093E8008091E80080FFFCCF8091C0
:103BB0001D0136C0809172028132D9F58091760262
:103BC00090917702892BA9F58091E800877F8093F7
:103BD000E8000E941E208091740280931D010C94C5
:103BE0003D0F80917202813221F58091E800877F3C
:103BF0008093E8000E941E208091750280934D0200
:103C0000089580917202813AA1F48091E800877F43
:103C10008093E8008091E80080FFFCCF80914D0206
:103C20008093F1008091E8008E778093E8000C94F7
:103C30001E20089584B7877F84BF0FB6F894A89597
:103C400080916000886180936000109260000FBED8
:103C500090E080E80FB6F894809361009093610043
:103C60000FBE0E94810A0E9470200E94CD20809188
:103C7000E20084608093E20078940E9462230E94B4
:103C8000870A83E191E00E941B0A809171028530CE
:103C900069F40E94E41680916F028823B1F30E94B8
:103CA000CC16882391F30E94C91EEFCF0E948F0A81
:103CB000ECCF0C945B1E292F332723303105C9F03C
:103CC00060F42130310581F02230310509F04AC01D
:103CD0008BE390E02AEA32E049C02132310511F14C
:103CE0002232310579F13EC082E190E025EE32E0EA
:103CF0003DC099278130910561F040F082309105F7
:103D000059F0039779F5E4E6F2E008C0E6EAF2E05C
:103D100005C0E6E9F2E002C0EAE6F2E0849190E054
:103D20009F0124C06115710541F061307105D1F426
:103D300089E090E025ED32E019C089E090E02CEBBD
:103D400032E014C06115710541F06130710551F424
:103D500081E890E027EF32E009C080E490E028E7B6
:103D600033E004C080E090E020E030E0FA013183ED
:103D70002083089580917102843011F081E00895CC
:103D800082E0089580914E02811102C00C94BA1E07
:103D9000089580E189BD82E189BD09B400FEFDCFAF
:103DA0008091D8008F7D8093D8008091E000826060
:103DB0008093E0008091E00081FDFCCF0895CF92D8
:103DC000DF92EF92FF920F931F93CF93DF93EC015B
:103DD0008B017A010E943D20811133C0E114F1046E
:103DE00039F0F70180819181081B190BC80FD91F89
:103DF000C12CD12C0115110519F18091E80085FD28
:103E000016C08091E8008E778093E800E114F104F9
:103E100049F0F70180819181C80ED91ED182C082FC
:103E200085E00FC00E943D20882321F30AC08991BC
:103E30008093F10001501109FFEFCF1ADF0ADACFAA
:103E400080E0DF91CF911F910F91FF90EF90DF9075
:103E5000CF90089520917802309179022617370784
:103E600048F06115710539F42091E8002E77209310
:103E7000E80001C0B901FC0120E06115710579F18C
:103E8000809171028823F1F18530F1F18091E80091
:103E900083FD3CC08091E80082FD2EC08091E80047
:103EA00080FFEBCF2091F3008091F20090E0922B05
:103EB0006115710551F08830910538F421912093F6
:103EC000F100615071090196F3CF21E0089709F0E4
:103ED00020E08091E8008E778093E800CECF21111A
:103EE000CFCF0AC080917102882361F0853061F0E4
:103EF0008091E80083FD0AC08091E80082FFF2CF44
:103F000080E0089582E0089583E0089581E00895B7
:103F100020917802309179022617370748F0611511
:103F2000710539F42091E8002E772093E80001C054
:103F3000B901FC0120E06115710591F180917102D8
:103F4000882309F440C0853009F43FC08091E8001F
:103F500083FD3DC08091E80082FD2FC08091E80084
:103F600080FFE9CF2091F3008091F20090E0922B46
:103F70006115710559F08830910540F42491209322
:103F8000F1003196615071090196F2CF21E0089756
:103F900009F020E08091E8008E778093E800CBCF95
:103FA0002111CCCF0AC080917102882361F0853045
:103FB00061F08091E80083FD0AC08091E80082FFF3
:103FC000F2CF80E0089582E0089583E0089581E0D3
:103FD0000895982F973068F59093E900981739F075
:103FE0007091EC002091ED005091F00003C0242F5F
:103FF000762F50E021FD02C09F5FECCF3091EB00A7
:104000003E7F3093EB003091ED003D7F3093ED002B
:104010003091EB0031603093EB007093EC00209313
:10402000ED005093F0002091EE0027FDE5CF80E0F9
:1040300008958F708093E90081E008958091720265
:1040400087FF11C08091E80082FD05C08091710258
:104050008111F8CF11C08091E8008B770BC080915F
:104060007102882349F08091E80080FFF8CF8091A9
:10407000E8008E778093E80008952091E400309165
:10408000E50095E64091EC00842F817040FF23C04D
:104090008091E80080FD1DC080917102882399F015
:1040A000853099F08091EB0085FD11C04091E400CE
:1040B0005091E5002417350729F3915011F09A012A
:1040C000E1CF84E0089582E0089583E0089581E0DF
:1040D000089580E008954091E80042FFDDCF089503
:1040E0000E94DE200E94E620E0EEF0E08081816008
:1040F0008083E8EDF0E080818F77808319BCA7EDA5
:10410000B0E08C918E7F8C9380818F7E8083109223
:10411000700208950F931F93CF93DF930E94DE20C8
:104120000E94E620C8EDD0E088818F77888388815F
:104130008068888388818F7D888319BC1092710282
:1041400010926D0210926F0210926E0200EE10E05B
:10415000F80180818B7F808388818160888342E041
:1041600060E080E00E94E91FE1EEF0E080818E7F58
:104170008083E2EEF0E080818160808380818860CE
:104180008083F80180818E7F80838881806188832D
:10419000DF91CF911F910F910895E8EDF0E08081BC
:1041A0008F7E8083E7EDF0E080818160808384E012
:1041B00082BF81E0809370020C948A20E8EDF0E0E9
:1041C00080818E7F80831092E20008951092DA0041
:1041D0001092E10008951F920F920FB60F921124D2
:1041E0002F933F934F935F936F937F938F939F93FF
:1041F000AF93BF93EF93FF938091E10082FF0BC0D9
:104200008091E20082FF07C08091E1008B7F809364
:10421000E1000E9461238091DA0080FF1FC080913D
:10422000D80080FF1BC08091DA008E7F8093DA0077
:104230008091D90080FF0DC080E189BD82E189BDF8
:1042400009B400FEFDCF81E0809371020E943E1D03
:1042500005C019BC109271020E944C1D8091E100B2
:1042600080FF19C08091E20080FF15C08091E200BC
:104270008E7F8093E2008091E20080618093E20073
:104280008091D80080628093D80019BC85E080932B
:1042900071020E94501D8091E10084FF30C0809126
:1042A000E20084FF2CC080E189BD82E189BD09B4B0
:1042B00000FEFDCF8091D8008F7D8093D800809143
:1042C000E1008F7E8093E1008091E2008F7E8093F9
:1042D000E2008091E20081608093E20080916D02B3
:1042E000882311F084E007C08091E30087FD02C0BD
:1042F00081E001C083E0809371020E94511D809192
:10430000E10083FF29C08091E20083FF25C08091F6
:10431000E100877F8093E10082E080937102109238
:104320006D028091E1008E7F8093E1008091E20038
:104330008E7F8093E2008091E20080618093E200B2
:1043400042E060E080E00E94E91F8091F000886018
:104350008093F0000E944F1DFF91EF91BF91AF91AC
:104360009F918F917F916F915F914F913F912F918D
:104370000F900FBE0F901F9018951F920F920FB6BF
:104380000F9211242F933F934F935F936F937F93DB
:104390008F939F93AF93BF93CF93DF93EF93FF934D
:1043A000C091E900CF708091EC00D82FD17080FDD2
:1043B000D0E81092E9008091F000877F8093F000B0
:1043C00078940E9401221092E9008091F0008860A8
:1043D0008093F000CD2BCF70C093E900FF91EF9157
:1043E000DF91CF91BF91AF919F918F917F916F910D
:1043F0005F914F913F912F910F900FBE0F901F90A3
:1044000018951F93CF93DF93CDB7DEB7AA970FB65A
:10441000F894DEBF0FBECDBFE2E7F2E08091F1007D
:10442000819322E0EA37F207C9F70E945D1D80916F
:10443000E80083FF2EC18091720290917302492F90
:1044400050E04A30510508F024C1FA01EC58FF4F02
:104450000C949123803821F0823809F01AC108C0E9
:1044600080916E0290916F02992389F082600FC053
:10447000809176028F70873008F00BC18093E9003D
:104480008091EB0085FB882780F91092E9009091DC
:10449000E800977F9093E8008093F1001092F1007C
:1044A000D1C0282F2D7F09F0F4C0882319F0823065
:1044B00061F0EFC080917402813009F0EAC093305E
:1044C00009F080E080936F022EC080917402811108
:1044D0002AC0809176028F702FEF280F263008F0C7
:1044E000D8C08093E9002091EB0020FF1CC09330DE
:1044F00021F48091EB00806214C09091EB009061F8
:104500009093EB0021E030E0A90102C0440F551F59
:104510008A95E2F74093EA001092EA008091EB005E
:1045200088608093EB001092E9008091E800877F1B
:104530008093E8000E941E20ACC08111AAC0109197
:1045400074021F778091E3008078812B8093E300D1
:104550008091E800877F8093E8000E941E20809170
:10456000E80080FFFCCF8091E30080688093E30047
:10457000111102C082E001C083E08093710289C002
:104580008058823008F085C0809174029091750245
:104590008C3D53E0950779F583E08A838AE289832D
:1045A0004FB7F894DE01139620E03EE051E2E32F8E
:1045B000F0E050935700E49120FF03C0E295EF70C4
:1045C0003F5FEF708E2F90E0EA3010F0C79601C089
:1045D000C0968D939D932F5F243149F74FBF8091F3
:1045E000E800877F8093E8006AE270E0CE010196E0
:1045F0000E942A1F16C06091760270917702AE0168
:104600004F5F5F4F0E94591EBC01892B09F441C0C6
:104610009091E800977F9093E80089819A810E94A9
:10462000881F8091E8008B778093E80032C0803843
:1046300081F58091E800877F8093E80080916D028A
:104640008093F1008091E8008E7772CF811121C0B4
:10465000809174029091750299270297D4F4809109
:10466000E800877F8093E8008091740280936D0258
:104670000E941E2080916D02811106C08091E3008E
:1046800087FD02C081E001C084E0809371020E9436
:10469000531D8091E80083FF0AC08091E800877F66
:1046A0008093E8008091EB0080628093EB00AA96F3
:1046B0000FB6F894DEBF0FBECDBFDF91CF911F9133
:1046C00008950895CF93809171028823A1F0C0913D
:1046D000E900CF709091EC00892F817090FD80E807
:1046E000C82B1092E9008091E80083FD0E9401220E
:1046F000CF70C093E900CF91089597FB072E16F471
:10470000009407D077FD09D00E94972307FC05D0BD
:104710003EF4909581959F4F0895709561957F4FD8
:104720000895EE0FFF1F0590F491E02D0994AA1B48
:10473000BB1B51E107C0AA1FBB1FA617B70710F08C
:10474000A61BB70B881F991F5A95A9F780959095BE
:10475000BC01CD010895F999FECF92BD81BDF89AB3
:10476000992780B50895A8E1B0E042E050E00C94AC
:10477000DF23262FF999FECF92BD81BDF89A0197CC
:1047800000B4021639F01FBA20BD0FB6F894FA9A99
:10479000F99A0FBE08950396272F0E94BA230E940C
:1047A000B923252F0E94BA23242F0C94BA230196F3
:1047B000272F0E94BA230C94B923DC01CB01FC0102
:1047C000F999FECF06C0F2BDE1BDF89A319600B46A
:0E47D0000D9241505040B8F70895F894FFCF75
:1047DE00019F0100A00105A00127022808641E14F4
:1047EE000A321E941C0B1DE01CDC1CCA1C01E200CC
:1047FE00E900EA00B500B600B700CD008301CC0099
:10480E008A0192019401210223022402250226022A
:10481E0027022A02B300B4006F007000818283F673
:10482E00F7313332369497C634350000000000E27B
:10483E0000E900EA00B500B600B700CD008301CC58
:10484E00008A0192019401210223022402250226EC
:10485E000227022A02B300B4006F00700081828327
:0A486E000102030405060708090013
:00000001FF
